:100000000C94EA000C9412010C9412010C9412014D
:100010000C9412010C9412010C9412010C94A20283
:100020000C9412010C9412010C9412010C94120104
:100030000C9412010C9412010C9412010C941201F4
:100040000C94EA0A0C9412010C94380F0C94FD0ED7
:100050000C9412010C9412010C9412010C941201D4
:100060000C9412010C94120100407A10F35A00A073
:10007000724E18090010A5D4E80000E87648170071
:1000800000E40B54020000CA9A3B000000E1F505B1
:10009000000080969800000040420F000000A086FB
:1000A00001000000102700000000E803000000002D
:1000B0006400000000000A000000000001000000D1
:1000C00000002C76D888DC674F0823DFC1DFAE59EB
:1000D000E1B1B796E5E3E453C63AE651997696E87E
:1000E000E6C28426EB898C9B62ED407C6FFCEFBC02
:1000F0009C9F40F2BAA56FA5F490055A2AF75C932D
:100100006B6CF9676DC11BFCE0E40D47FEF520E662
:10011000B500D0ED902E0300943577050080841E45
:10012000080000204E0A000000C80C333333330FA0
:10013000986E12831141EF8D2114893BE65516CF3D
:10014000FEE6DB18D1844B381BF77C1D901DA4BB49
:10015000E424203284725E228100C9F124ECA1E5FE
:100160003D2700000000240027002A0000000000B6
:10017000250028002B0000000007000201000003FA
:100180000406000000000000000002000108000654
:100190000400014500008200004000206382536398
:1001A00000000000230026002900040404040404C5
:1001B0000404020202020202030303030303010216
:1001C00004081020408001020408102001020408E5
:1001D0001020561611241FBECFEFD8E0DEBFCDBFD2
:1001E00012E0A0E0B1E0E6E3F7E302C005900D9273
:1001F000A83AB107D9F725E0A8EAB2E001C01D92FC
:10020000AE3DB207E1F710E0CAEED0E004C021979E
:10021000FE010E94931BC93ED107C9F70E94720FCD
:100220000C94E1160C9400000895CF92DF92EF92A7
:10023000FF920F931F93CF93DF936C01EB017B0130
:10024000E40EF51E00E010E0CE15DF0561F06991C7
:10025000D601ED91FC910190F081E02DC601099548
:10026000080F191FF1CFC801DF91CF911F910F9196
:10027000FF90EF90DF90CF900895833081F028F4C5
:10028000813099F08230A1F008958630A9F087304E
:10029000B9F08430D1F4809180008F7D03C08091CB
:1002A00080008F7780938000089584B58F7702C097
:1002B00084B58F7D84BD08958091B0008F7703C091
:1002C0008091B0008F7D8093B0000895CF93DF932D
:1002D000282F30E0F901EA58FE4F8491F901E254E9
:1002E000FE4FD491F901E655FE4FC491CC2391F015
:1002F00081110E943D01EC2FF0E0EE0FFF1FE05650
:10030000FE4FA591B491EC91ED2381E090E021F4B2
:1003100080E002C080E090E0DF91CF910895DC01A1
:10032000ED91FC910190F081E02D0994611571052A
:1003300079F0FB0101900020E9F73197AF01461BEE
:10034000570BDC01ED91FC910280F381E02D0994C3
:1003500080E090E008958F929F92AF92BF92CF92EB
:10036000DF92EF92FF920F931F93CF93DF93CDB75E
:10037000DEB7A1970FB6F894DEBF0FBECDBF6C01FC
:10038000142FE52FCB01022F19A2223008F40AE026
:100390007E0121E2E20EF11C802E912CA12CB12CC9
:1003A000612F7E2FA50194010E948519029F1019CB
:1003B000112481E0E81AF1081A3014F4105D01C02C
:1003C000195CF7011083122FE32FCA01232B242B72
:1003D000252B31F7B701C6010E949601A1960FB6F1
:1003E000F894DEBF0FBECDBFDF91CF911F910F916B
:1003F000FF90EF90DF90CF90BF90AF909F908F9045
:1004000008958F929F92AF92BF92CF92DF92EF9218
:10041000FF920F931F93CF93DF937C018B016C01AD
:1004200082E0C80ED11C4701E5E08E0E911CC0E0B1
:10043000D0E0F60141916F0150E060E070E02AE009
:10044000C8010E94AB015C016EE2C8010E948F01ED
:100450008A0D9B1DC80FD91FC814D90451F7F70185
:10046000458150E060E070E02AE0C8010E94AB01E5
:100470008C0F9D1FDF91CF911F910F91FF90EF90F7
:10048000DF90CF90BF90AF909F908F9008951F9373
:10049000CF93DF93282F30E0F901EA58FE4F849183
:1004A000F901E254FE4FD491F901E655FE4FC49193
:1004B000CC23C9F0162F81110E943D01EC2FF0E0F2
:1004C000EE0FFF1FE459FE4FA591B4918FB7F8943A
:1004D000111105C09C91ED2FE095E92302C0EC912C
:1004E000ED2BEC938FBFDF91CF911F9108959091E9
:1004F0000201981324C0EAE8F1E0E4919FEF9093A1
:100500000201E130B9F098F0E230C9F49091700046
:100510009D7F9093700091E09093B0009091B10016
:10052000987F94609093B1001092B30008C010922D
:100530006E0005C090916F009D7F90936F0060E00A
:100540000C9447021F920F920FB60F9211242F9313
:100550003F934F935F936F937F938F939F93AF934B
:10056000BF93EF93FF938091260490912704A0916D
:100570002804B0912904892B8A2B8B2B51F180916F
:100580002504E0912304F09124049081892780833D
:100590008091260490912704A0912804B091290409
:1005A000181619061A061B06C4F4809126049091A9
:1005B0002704A0912804B09129040197A109B10949
:1005C0008093260490932704A0932804B0932904D1
:1005D00004C0809102010E947702FF91EF91BF91C8
:1005E000AF919F918F917F916F915F914F913F91CB
:1005F0002F910F900FBE0F901F901895CF93DF9300
:1006000090E0FC01E254FE4F2491FC01E655FE4FC0
:100610008491882361F190E0880F991FFC01EE59C5
:10062000FE4FC591D491FC01E459FE4FA591B491C0
:10063000611109C09FB7F89488812095822388832F
:10064000EC912E230BC0623061F49FB7F89438818F
:10065000822F809583238883EC912E2B2C939FBF30
:1006600006C08FB7F894E8812E2B28838FBFDF91C7
:10067000CF9108952F923F924F925F926F927F9207
:100680008F929F92AF92BF92CF92DF92EF92FF92A2
:100690000F931F93CF93DF93CDB7DEB76E970FB64F
:1006A000F894DEBF0FBECDBF7C018B011A0169013A
:1006B0008DE691E00E940F0AC7010E94140A8CE7A0
:1006C00091E00E940F0AC1010E94140A80E991E0A2
:1006D0000E940F0AC8010E94E40B81EA91E00E9487
:1006E000820982EA91E00E940F0AC6010E948209F3
:1006F0008CEA91E00E9482098E010F5F1F4FCE01AC
:100700004596F80111921192E817F907D9F75801A7
:10071000E12CF12CE114F10479F46AE370E0C601F4
:100720000E94CC19009719F08C199D0902C08FEF17
:100730009FEF9A8389831CC0F50132978080918056
:100740002FEF821A920A3601680C791C6AE370E076
:10075000C3010E94CC190097A9F0861997098F3F11
:100760003FEF930779F0880D991DF5019183808300
:10077000FFEFEF1AFF0A22E0A20EB11C3AE0E316E7
:10078000F10441F68DEB91E00E940F0AC7010E942F
:10079000260A26E12E9DC0012F9D900D1124FC01FB
:1007A000E151FA4EFE8BED8BBFEE8B2EB5E19B2E09
:1007B000412C512C32014394C7010197880F991F96
:1007C0009801280F391F3A8F298FC201019761F4D0
:1007D00049815A81B6018FEE95E10E94E719E981BE
:1007E000FA81E151FA4E24C08E159F0569F4E98D16
:1007F000FA8D608171816F5F7F4F6C0D7D1D8D89DA
:100800009E890E94E01915C0F801329760817181BC
:100810006F5F7F4FF801A080B180A61AB70A6C0DF8
:100820007D1DA501C4010E94E719F401EA0DFB1D1D
:10083000108282ED91E00E940F0A2AE0B301A2012A
:100840008EE595E00E94AB018FE991E00E940F0ACE
:10085000C4010E948209FFEF4F1A5F0A6F0A7F0AE4
:1008600026E1820E911C0E5F1F4FC2010197E81610
:10087000F9060CF0AACF8CED91E00E9482098FEE70
:1008800095E10E94820985E096E10E9482098BE150
:1008900096E10E9482098BEE91E00E94820985E038
:1008A00096E10E94C3167C018BE196E10E94C3167B
:1008B000182FA82EB92E81E396E10E94C3164C0191
:1008C00087E496E10E94C3166C0185EF91E00E94D7
:1008D0000F0AC7010E94260A8BEF91E00E940F0ABF
:1008E000C5010E94140A63E072E08FEE95E10E9458
:1008F000D719892B19F589E092E00E94820961E0FD
:100900008E2D0E94FE02612F8E2D0E9447028E2D99
:100910000E9466018A159B0519F06EE077E202C01D
:100920006FE077E2072E000C880B990B0E94D71A14
:1009300001EF13E020E041E00E94A31661E172E0C4
:100940008FEE95E10E94D719892BC9F462E08E2DB4
:100950000E94FE028E2D0E94660161E070E0892BEC
:1009600011F460E070E0072E000C880B990B0E94D8
:10097000D71A01EF13E020E041E00E94A31666E1E0
:1009800072E08FEE95E10E94D719892B69F5C701B6
:100990001E141F040CF00E969C012E5031092830B5
:1009A0003105A0F48E50806480937C0080917A00A1
:1009B000806480937A0080917A0086FDFCCF6091FC
:1009C00078008091790070E0782B02C06BE077E2CC
:1009D000072E000C880B990B0E94D71A01EF13E029
:1009E00020E041E00E94A3166DE172E08FEE95E1F8
:1009F0000E94D719892B09F091C033E0E316F10466
:100A000049F0C7010597029728F089E0E816F1043C
:100A100009F076C09501E5E6AE16B10410F024E6C3
:100A200030E0AFEFB0E00E94A71924E630E040E0EC
:100A300050E00E945B19890161E08E2D2B8F3C8F65
:100A40004D8F5E8F0E94FE022B8D3C8D4D8D5E8DF5
:100A5000211531054105510509F449C02F3F3105E4
:100A60004105510509F445C0F701FF27EA58FE4F3B
:100A7000E491E330F9F048F4E130B9F0E230A1F567
:100A800084B5806284BD28BD38C0E630E9F0E73027
:100A900019F1E43049F580918000806280938000F4
:100AA00030938B0020938A0028C084B5806884BD71
:100AB00027BD23C0809180008068809380003093A0
:100AC00089002093880019C08091B00080688093CD
:100AD000B0002093B30011C08091B0008062809379
:100AE000B0002093B40009C00038110514F460E090
:100AF00001C061E08E2D0E9447026FE077E202C0E4
:100B00006AE077E2072E000C880B990B0E94D71A37
:100B100001EF13E020E041E00E94A31661E272E0E1
:100B20008FEE95E10E94D719892B09F03FC060E054
:100B30008E2D0E94FE0261E08E2D0E9491092B01F4
:100B40003C0160E08E2D0E9491096D8B7E8B8F8B16
:100B5000988FC301B2010E94D51A2B013C016D8907
:100B60007E898F89988D0E94D51A9B01AC01C301A3
:100B7000B2010E94F7192B013C0120E030E0A901ED
:100B80000E94631B18164CF4A301920160E074E20A
:100B900084E799E40E94631A03C060E070E0CB012F
:100BA00001EF13E021E043E00E94A31666E272E049
:100BB0008FEE95E10E94D7198C01892B09F0E1C1D4
:100BC000CA94CD2809F0CBC1C401092C000CAA0B92
:100BD000BB0B8F319105A105B10508F4C0C1009789
:100BE000A140B10508F0BBC1809102018E1521F032
:100BF0008F3F09F0B8C104C0EAE8F1E014917DC06C
:100C0000E0920201EAE8F1E014911F3F09F4ABC160
:100C1000113029F1123009F449C011116EC014BC11
:100C200015BC84B5826084BD85B5816085BDC70172
:100C30009927FC01E655FE4FE491F0E0EE0FFF1F0F
:100C4000E459FE4F259134913093E8032093E70354
:100C5000FC01E254FE4FE491E093E60350C0109291
:100C600080001092810080918100886080938100D3
:100C700080918100816080938100C7019927FC01E8
:100C8000E655FE4FE491F0E0EE0FFF1FE459FE4FF2
:100C9000259134913093E5032093E403FC01E25461
:100CA000FE4FE491E093E30311E029C01092B000FD
:100CB0001092B1008091B00082608093B00080916A
:100CC000B10081608093B100C7019927FC01E6550E
:100CD000FE4FE491F0E0EE0FFF1FE459FE4F259127
:100CE00034913093240420932304FC01E254FE4FFA
:100CF000E491E093250412E002C017FD34C161E0E5
:100D00008E2D0E94FE022501612C712C812F8D7F7A
:100D100009F0B3C060E072E18AE790E0A3019201BC
:100D20000E945B192D8B3E8B4F8B588F69017A0186
:100D300031E0C31AD108E108F1088FEFC816D104D9
:100D4000E104F10409F008F44BC060E472E48FE0C0
:100D500090E0A30192010E945B1969017A01E1E030
:100D6000CE1AD108E108F108123001F5FFEFCF16D5
:100D7000D104E104F10409F008F4E1C160E970ED87
:100D800083E090E0A30192010E945B1969017A015E
:100D900081E0C81AD108E108F108EFEFCE16D104BE
:100DA000E104F10409F0B8F583E064C0FFEFCF1669
:100DB000D104E104F104B1F0A8F068E478EE81E038
:100DC00090E0A30192010E945B1969017A0181E020
:100DD000C81AD108E108F108112309F456C1A6C1C7
:100DE00081E001C082E01123A1F044C08D899E8979
:100DF000AF89B88D2AE0B595A795979587952A95DF
:100E0000D1F76C017D0121E0C21AD108E108F10897
:100E100085E085BD61C068E478EE81E090E0A301E3
:100E200092010E945B1969017A01F1E0CF1AD108A1
:100E3000E108F1082FEFC216D104E104F10409F032
:100E400008F421C164E274EF80E090E0A301920114
:100E50000E945B1969017A01E1E0CE1AD108E1082C
:100E6000F108FFEFCF16D104E104F10411F008F00E
:100E70002EC185E08093B1002FC060E072E18AE767
:100E800090E0A30192010E945B1969017A0181E05F
:100E9000C81AD108E108F108C114D104E1E0EE0656
:100EA000F10488F068E478EE81E090E0A30192011B
:100EB0000E945B1969017A01F1E0CF1AD108E108BB
:100EC000F10893E001C091E0113031F4809181008C
:100ED000887F892B809381009501220F331FD401D5
:100EE0000E948C1B28EE33E040E050E00E94851900
:100EF000113099F0123019F1111135C0C7BC20938F
:100F0000ED033093EE034093EF035093F003809191
:100F10006E00826080936E0026C0D0928900C092DD
:100F200088002093E9033093EA034093EB03509346
:100F3000EC0380916F00826080936F0014C0C092B8
:100F4000B300209326043093270440932804509341
:100F500029048091700082608093700004C08E2DFF
:100F60000E94770202C00FE017E2B801110F880B50
:100F7000990B0E94D71A01EF13E021E043E00E9491
:100F8000A3168BE292E00E940F0A81EF93E00E9489
:100F9000820984E392E00E940F0A81EF93E00E94AD
:100FA00082098CE392E00E940F0A01EF13E0F8013E
:100FB00001900020E9F7CF010197815F93400E94E3
:100FC000140A8BE492E00E9482098DE592E00E946F
:100FD000820982E792E00E948209F80101900020D4
:100FE000E9F73197E15FF3401E2FED3D08F01CED6E
:100FF000E12EF12C10925A048CE1810F80935B0456
:101000000E94370C80916C0480936E0480916D0473
:1010100080936F0430926C0420926D0410927004DF
:10102000E8E0E10FE09371041092720410927304EF
:10103000A70161EF73E084E794E00E94C319A70160
:10104000405F5F4F21E06AE188E20E947D0BC701AB
:101050008A966E960FB6F894DEBF0FBECDBFDF91B5
:10106000CF911F910F91FF90EF90DF90CF90BF90A5
:10107000AF909F908F907F906F905F904F903F9038
:101080002F900C94240D84E0F5CEFFEFCF16D10401
:10109000E104F104D1F0C8F062E17AE780E090E089
:1010A000A30192010E945B1969017A0181E0C81ACB
:1010B000D108E108F108EFEFCE16D104E104F10404
:1010C00011F008F093CE84E0A4CE83E0A2CE62E1DA
:1010D0007AE780E090E0A30192010E945B19690128
:1010E0007A0181E0C81AD108E108F108EFEFCE16C5
:1010F000D104E104F104C1F0B8F08D899E89AF8973
:10110000B88D5AE0B595A795979587955A95D1F7DB
:101110006C017D0121E0C21AD108E108F108112318
:1011200009F476CE87E0A6CE86E05DCEFFEFCF163F
:10113000D104E104F10409F050F684E054CE82E0D9
:1011400099CEE0918C05F0918D059F012F5F3F4F67
:1011500030938D0520938C0580830895EF92FF9244
:101160000F931F93CF93DF931F92CDB7DEB7062F58
:10117000142F59830E94A108802F0E94A108E12EFC
:101180005981F52E100F1E1531F0F70181917F0165
:101190000E94A108F8CF0F90DF91CF911F910F917E
:1011A000FF90EF9008950F931F93CF93DF93FC016F
:1011B000A685B7858D01005C1F4FE8018881998164
:1011C00001968F739927AD014E5B5F4FEA0128812D
:1011D000398182179307D1F3E80128813981A20F61
:1011E000B31F6C93A685B785A05CBF4F11969C93E7
:1011F0008E93A689B7892C9181E090E0078C02C07C
:10120000880F991F0A94E2F7822B8C9381E081A3C7
:101210000488F589E02D80818064808381E090E0FE
:10122000DF91CF911F910F910895FC0181A1882337
:1012300029F0A489B5898C9186FFFBCF11A208956E
:10124000FC01A485B585FD01E05CFF4F2081318163
:101250003296808191812817390779F080819181B8
:10126000A80FB91F8C91208131812F5F3F4F2F73C1
:1012700033273183208390E008958FEF9FEF089507
:10128000DC011C96ED91FC911D97DF01A05CBF4F26
:101290002D913C91119712968D919C911197281741
:1012A000390739F08D919C91E80FF91F808190E00A
:1012B00008958FEF9FEF0895FC0124853585F9018E
:1012C000E05CFF4F80819181329620813181821BC9
:1012D000930B8F73992708958EE595E00C945C0924
:1012E000CF93DF936DE08EE595E00E948F01EC01D6
:1012F0006AE08EE595E00E948F018C0F9D1FDF91C3
:10130000CF910895CF93DF93BC018EE595E00E94C5
:101310009601EC010E9470098C0F9D1FDF91CF9107
:101320000895CF92DF92EF92FF92CF93DF9390E0F8
:10133000FC01E254FE4FD491FC01E655FE4F84912E
:10134000662311F0CD2F01C0C0E090E0880F991FF7
:1013500080569E4F40E050E0BA01FC01A591B49147
:10136000EC91ED23EC1318C04F5F5F4F6F4F7F4F31
:10137000413422E452072FE06207710571F745C03E
:101380004F5F5F4F6F4F7F4F413422E452072FE092
:101390006207710509F439C0FC01A591B491EC9183
:1013A000ED23EC13EDCF30E4C32E32E4D32E3FE037
:1013B000E32EF12CC41AD50AE60AF70A20E030E041
:1013C000A901FC01A591B491EC91ED23EC130AC0A5
:1013D0002C153D054E055F05C1F02F5F3F4F4F4F68
:1013E0005F4FEFCFA5E1B0E00E947A19DC01CB019D
:1013F0004096A11DB11DBC01CD0124E096958795B5
:10140000779567952A95D1F703C060E070E0CB012E
:10141000DF91CF91FF90EF90DF90CF900895BC01C6
:101420008EE595E00C949601CF93DF93AC0160E0DC
:1014300070E02AE08EE595E00E94AB01EC010E948D
:1014400070098C0F9D1FDF91CF910895CF92DF928D
:10145000EF92FF92CF93DF936C01990FEE08FF0894
:10146000F7FE16C06DE28EE595E00E948F01EC015B
:1014700044275527BA014C195D096E097F092AE0F6
:101480008EE595E00E94AB017C01EC0EFD1E08C0CC
:101490002AE0B701A6018EE595E00E94AB017C0130
:1014A0000E9470098E0D9F1DDF91CF91FF90EF90EC
:1014B000DF90CF900895CF93DF93FC0180911605C4
:1014C0008823A1F08081882389F0A6E1B5E0C2E1FC
:1014D000D5E08D91219199918227892331F485E07E
:1014E000AA31B807B1F781E001C080E0DF91CF9168
:1014F0000895CF92DF92EF92FF920F931F9386345D
:10150000910568F120916D04233449F5C090780469
:10151000D0907904E0907A04F0907B040091460426
:10152000109147042091480430914904C016D10617
:10153000E206F306A1F4E4E6F5E0865B9B4F9F012B
:101540002E5F3F4F41815081553319F45281561718
:1015500041F0F901E40FF11DE817F90780F380E08D
:1015600001C081E01F910F91FF90EF90DF90CF902D
:1015700008953FB7F8948091880590918905A091CE
:101580008A05B0918B0526B5A89B05C02F3F19F0A1
:101590000196A11DB11D3FBFBA2FA92F982F8827F3
:1015A000820F911DA11DB11DBC01CD0142E0660F4E
:1015B000771F881F991F4A95D1F708952FB7F89480
:1015C00060918405709185058091860590918705CD
:1015D0002FBF08951F920F920FB60F9211242F93D1
:1015E0003F938F939F93AF93BF9380918405909186
:1015F0008505A0918605B09187053091830523E08C
:10160000230F2D3720F40196A11DB11D05C026E83A
:10161000230F0296A11DB11D20938305809384059D
:1016200090938505A0938605B093870580918805E2
:1016300090918905A0918A05B0918B050196A11D15
:10164000B11D8093880590938905A0938A05B09376
:101650008B05BF91AF919F918F913F912F910F90EB
:101660000FBE0F901F90189580915A0490E0982F0C
:10167000882720915B04822B44972091780430E0E6
:1016800044E0359527954A95E1F7220F331F220F45
:10169000331F821B930B97FF02C080E090E00895F8
:1016A00020916E0430916C0430936E0420936C048E
:1016B00020916F0430916D0430936F0420936D047A
:1016C00024E734E0A8E7B4E0F9014291840F911DCA
:1016D0004E918C93662311F0408301C01082892FB4
:1016E000992744E04E0F4213F0CF10927C041092E1
:1016F0007D0480E58093780408950F931F93CF9322
:10170000DF9370E0665B7B4F213021F48A01075F35
:101710001F4F0CC0223039F000E010E09801DB01CF
:101720001196EA0106C08A010250110920E030E05A
:10173000F6CFC230D10578F0FD013197E081F0E0BD
:10174000FE2FEE279C91E92B0E0F1F1F211D311D2F
:1017500022971296EECFFA01EE7FE60FF71F40FFB9
:101760000CC0408150E060E070E0762F652F542F70
:101770004427040F151F261F371FA9016627772747
:10178000411551056105710519F022273327F1CF65
:1017900000951095E82FF0E0E65BFB4F1083018386
:1017A000DF91CF911F910F910895EAE4F4E0108E3C
:1017B000118E80E4848B158A868B20E044E150E012
:1017C0006EE088E10C947D0B0F931F93CF938C01F7
:1017D000C0E0F80141918F0150E060E070E02AE044
:1017E0008EE595E00E94AB01C33029F06EE28EE5F4
:1017F00095E00E948F01CF5FC43059F7CF911F91C0
:101800000F910895DC0196E0FB0101900D929A95ED
:10181000E1F70895CF93DF93EB0144E050E0BC0182
:1018200086E694E00E94B619892B39F460E674E0EC
:10183000CE010E94020C81E001C080E0DF91CF91D7
:101840000895BC018AE494E00E94020C6BE374E00A
:1018500080E594E00C94020CFB014081518162818F
:101860007381FC014083518362837383089580E513
:1018700094E00E94210C64E674E088E694E00E9403
:101880002C0C66E175E084E694E00E942C0C0C942C
:10189000D50BCF93DF9300D0CDB7DEB769837A83C2
:1018A0000E94210C69817A8188E694E00E942C0CC8
:1018B00066E175E084E694E00F900F90DF91CF91A0
:1018C0000C942C0C8EBD0DB407FEFDCF089561E085
:1018D00080912A040E94470278940895F89460E069
:1018E00080912A040C9447020F931F93CF93DF93A8
:1018F000EC018B010E946E0C2097B9F08AE30E94E4
:10190000620C1EBCF801CE01019739F00DB407FE40
:10191000FDCF2EB51EBC2193F7CF2197C00FD11F4D
:101920000DB407FEFDCF8EB58883DF91CF911F9157
:101930000F910C94670CCF93DF9300D01F92CDB71B
:10194000DEB74B836A8389830E946E0C6A816F7154
:101950008981862B0E94620C4B81842F0E94620C2D
:101960000F900F900F90DF91CF910C94670C1F9305
:10197000CF93DF93182F1076C12FD0E020918205EE
:1019800030E0C217D307A1F043E06FE180EA0E9484
:101990009B0C10938205AE0185E0559547958A957D
:1019A000E1F76FE180E8DF91CF911F910C949B0CE0
:1019B000DF91CF911F9108951F93CF93DF931F92D3
:1019C000CDB7DEB7182F69830E94B70C4981612F0C
:1019D00080E40F90DF91CF911F910C949B0C1F938B
:1019E000CF93DF931F92CDB7DEB7182F79830E9474
:1019F000DC0C7981672F81E0810F0F90DF91CF910F
:101A00001F910C94DC0C1F93CF93DF931F92CDB7E3
:101A1000DEB7182F0E94B70C0E946E0C812F8F71B9
:101A20000E94620C80E00E94620C17FF03C080E0FD
:101A30000E94620C8EB589830E94670C89810F9089
:101A4000DF91CF911F910895CF93DF93EC0140E890
:101A50006FE180E80E949B0C40E86FE180EA0E9401
:101A60009B0C4AE06CE180EA0E949B0C60E07CE009
:101A700082E00E94EF0CBE01745F86E00E94EF0CD2
:101A800040E060E08AE70E949B0C0E946E0C209769
:101A900051F40E94670C48E06FE180E80E949B0CC3
:101AA000C0E0D0E01CC08AE70E94620C80914A042A
:101AB0008EBDEBE4F4E0C65BDB4FEC17FD0731F0C5
:101AC00081910DB407FEFDCF8EBDF7CF0DB407FE9B
:101AD000FDCFDFCF2196C83E83E0D80729F08CE107
:101AE0000E94030D8A70B1F38CE10E94030D81FD09
:101AF00003C0C83ED34039F448E06FE180EADF918B
:101B0000CF910C949B0CDF91CF910895EF92FF92AF
:101B10000F931F93CF93DF938C0186E191E0EAE46A
:101B2000F4E0DF019C011D9221503040E1F78091EB
:101B30004504833019F0C6E3D1E002C0C1E4D4E02B
:101B4000CE010E945B0ABE01882319F085E394E070
:101B500002C08FE294E00E94490C8881807F803E21
:101B600091F088819981AA81BB818F3F9F4FAF4FB0
:101B7000BF4F49F044E050E0BE018BE294E00E9488
:101B8000B619892B31F466E371E08AE494E00E948F
:101B9000020C88E0809356041092570449E050E00C
:101BA00063E971E088E594E00E94E41610925A041B
:101BB00081E18093610410926E0483E480936F044A
:101BC00010926C0484E480936D041092700410925F
:101BD00072041092730466E371E08AE494E00E9458
:101BE000020C81E0809374048093750486E08093F6
:101BF00076048091460490914704A0914804B091E6
:101C000049048093780490937904A0937A04B09364
:101C10007B04F090450483E0F81206C066E175E0AD
:101C200080E894E00E942C0C6BE374E080E994E07F
:101C30000E94020C80E695E090938D0580938C05C0
:101C4000CCE9D1E0EC2EA4E0EA0EFE0184910E94E2
:101C5000A1082196EC12F9CF85E30E94A10881E04A
:101C60000E94A108FF2011F083E001C081E00E94E2
:101C7000A1088DE30E94A10887E00E94A10881E0ED
:101C80000E94A108CBE3D4E0FC2E26E0F20EFC1665
:101C900021F089910E94A108FACF80910301882345
:101CA00071F0E3E0F1E001900020E9F73197BF0126
:101CB0006350714043E051E08CE00E94AE08011592
:101CC000110559F0A80164E082E30E94AE0841E4E6
:101CD00054E064E086E30E94AE0887E30E94A10816
:101CE00083E00E94A10881E00E94A10883E00E9495
:101CF000A10886E00E94A1088FEF0E94A108C09170
:101D00008C05D0918D05C457D440CE014C9690934C
:101D10005A0480935B040E94D50BCE0108969093E1
:101D2000700480937104AE01405F5F4F21E06AE16F
:101D300088E20E947D0BCE018A96DF91CF911F91A0
:101D40000F91FF90EF900C94240D0F931F93CF935E
:101D50008C0186E391E00E94210CEAE4F4E088E043
:101D60008487C6E0C58748E050E06BE871E088E50D
:101D700094E00E94E416EAE6F4E0DF011D92CA95C1
:101D8000E9F76BE374E080E694E00E94020CB8018E
:101D900080E794E00E942C0C66E175E086E694E012
:101DA0000E942C0C8AE290E0CF911F910F910C942D
:101DB000240D262F206120937904643021F00097B0
:101DC00011F481E090E061E00E94500B10925A04FF
:101DD00088E280935B040E94370C84E080937A044D
:101DE00010927B0422E04CE150E06AE182E30E9421
:101DF0007D0B86E390E00C94240D1F920F920FB69A
:101E00000F9211242F933F938F939F93EF93FF9300
:101E10002091CE053091CF058091D0059091D105CC
:101E20002817390731F48091C1008F7D8093C1005C
:101E300014C0E091D005F091D105E257FA4F20810E
:101E40008091D0059091D10501968F739927909339
:101E5000D1058093D0052093C600FF91EF919F910B
:101E60008F913F912F910F900FBE0F901F9018955B
:101E70001F920F920FB60F9211242F934F935F93DF
:101E80008F939F93EF93FF938091C00082FD1CC0BE
:101E90002091C60080915A0590915B0501968F7341
:101EA000992740915C0550915D058417950771F065
:101EB000E0915A05F0915B05E65EFA4F208390931E
:101EC0005B0580935A0502C08091C600FF91EF9197
:101ED0009F918F915F914F912F910F900FBE0F9017
:101EE0001F901895CF93DF93CDB7DEB72D970FB620
:101EF000F894DEBF0FBECDBF789484B5826084BDF8
:101F000084B5816084BD85B5826085BD85B58160FD
:101F100085BD80916E00816080936E00109281007B
:101F20008091810082608093810080918100816036
:101F300080938100809180008160809380008091F7
:101F4000B10084608093B1008091B0008160809383
:101F5000B00080917A00846080937A0080917A004A
:101F6000826080937A0080917A00816080937A0009
:101F700080917A00806880937A001092C1000FB639
:101F8000F894A89580916000886180936000109219
:101F900060000FBEE0917205F091730581E090E062
:101FA0009C0100907E0502C0220F331F0A94E2F7C5
:101FB0002083E0916E05F0916F051082E09170052D
:101FC000F09171052FEC208310927F05E09174054C
:101FD000F091750540819C0100907A0502C0220FA6
:101FE000331F0A94E2F7242B2083E0917405F091CB
:101FF000750540819C0100907B0502C0220F331FB4
:102000000A94E2F7242B2083E0917405F091750582
:1020100040819C0100907C0502C0220F331F0A946E
:10202000E2F7242B2083E0917405F091750520815F
:1020300000907D0502C0880F991F0A94E2F78095F1
:102040008223808388E591E00E9482091092060332
:1020500087E390E001E010E020E030E00097D1F06D
:10206000FC0143E0F595E7954A95E1F7E855FD4F0A
:10207000482F47706801790104C0CC0CDD1CEE1CB0
:10208000FF1C4A95D2F7B701A601A0814A2B4083D5
:102090000197E4CF6FE271E08BE394E00E94020CC1
:1020A00088EC90E09093B0028093AF020CB406FCF1
:1020B00025C061E08AE00E94FE0261E08AE00E94A1
:1020C000470261E08BE00E94FE0261E08DE00E9429
:1020D000FE0260E08CE00E94FE0261E08BE00E9464
:1020E000470260E08BE00E94470260E08DE00E94C2
:1020F000470280E58CBD8DB581608DBD8AE08093FF
:102100002A0461E00E94FE020E94670C4FEF60E02B
:102110008FEF0E949B0C0E94B90A8B0182E0C82EAF
:10212000D12CE12CF12C0E94B90A601B710B683E86
:102130007340C8F361E0C61AD108E108F1080851FC
:102140001C4FC114D104E104F10469F70E946E0C24
:102150008DE10E94620C80E00E94620C1EB50E941C
:10216000670C112399F360E070E088E00E94EF0CA7
:1021700060E070E08CE00E94EF0C6FEF7BE08AE0A3
:102180000E94EF0C60E07CE084E00E94EF0C6FEFB7
:1021900071E186E00E94EF0C61EB88E30E94DC0CA9
:1021A0006FE370E388E20E94EF0C69EF77EF80E362
:1021B0000E94EF0C6DE080EC0E94DC0C60E081EC92
:1021C0000E94DC0C42E362EC80E80E949B0C62E11E
:1021D0007CE086EC0E94EF0C62E184EC0E94DC0C57
:1021E0006CED75E08AEC0E94EF0C60913B0484EE8C
:1021F0000E94DC0C60913C0485EE0E94DC0C609136
:102200003D0482EE0E94DC0C60913E0483EE0E944D
:10221000DC0C60913F0480EE0E94DC0C6091400475
:1022200081EE0E94DC0C60E184ED0E94DC0C60E039
:1022300071E086ED0E94EF0C8AEE0E94030D80FD96
:10224000FBCF8FE10E94B70C40EC6BE180E80E946D
:102250009B0C44E06FE180E80E949B0C82E70E94A7
:10226000030D109206036BE271E086E195E00E9497
:102270002C0C109204031092030381E08093050359
:1022800067E271E08FEF92E00E942C0C63E271E054
:102290008AEF92E00E942C0C22E135E06BE274E0C0
:1022A000E6E1F5E044E04E0F9191D9018D919D0159
:1022B0008095892BDB018D93BD014E13F5CF1092D4
:1022C00004031092030380E691E00E940F0A86E166
:1022D00095E00E94E40B0E9470098091C102883051
:1022E00098F4B5E08B9FF0011124EE53FD4F2AE3E3
:1022F00033E03183208328E833E13383228391E084
:1023000094838F5F8093C102DD24D394B3E0CB2EFE
:102310004090EE025090EF02E090EC02F090ED025F
:10232000FA86E9865C864B862090F0023090F102B6
:102330008091B302882389F06091B1027091B2025A
:102340006115710519F46FEF7BE002C061507109EE
:102350008CE00E94EF0C1092B30289E30E94030DFF
:102360008823C9F16091B1027091B20280E00E94AD
:10237000EF0CBE016F5F7F4F86E090E00E94740C0F
:1023800089819A819093B2028093B102EB80FC80A4
:102390008091AF029091B0022D8127FF0EC001976E
:1023A00024E0E21AF1088E159F0508F47C016AE426
:1023B00074E0C7010E94740C02C0E12CF12CF701FB
:1023C000E65BFB4F1082D092B30240E46EE180E8FE
:1023D0000E949B0C02C0E12CF12C80910603882303
:1023E00009F43DC180914504823009F489C030F47C
:1023F000882381F1813009F44EC031C1833021F04E
:10240000843009F47DC02BC18090BD029090BE0243
:10241000A090BF02B090C0026FEF86169606A60687
:10242000B60609F41CC10E94DE0A0091B90210919F
:10243000BA022091BB023091BC02DC01CB01801BAF
:10244000910BA20BB30B88159905AA05BB0508F0E3
:1024500018C205C10E94DE0A6093460470934704C7
:102460008093480490934904109216051092170522
:10247000109218051092190580E090E00E94860DD8
:1024800088E30E94030D682F616088E30E94DC0CE2
:10249000D09245042AC062E0C7010E94790A8823CD
:1024A000A9F164E874E0CE0101960E942C0CE4E6E8
:1024B000F5E0C701865B9B4FBF016E5F7F4F2181B7
:1024C0003081363329F481E494E00E942C0C06C05C
:1024D000FB01E20FF11DE817F90770F3CE01019639
:1024E0000E94860D82E0809345040E94DE0A60937C
:1024F000B5027093B6028093B7029093B802AFC052
:1025000065E0C7010E94790A811119C00E94DE0AA4
:102510000091B5021091B6022091B7023091B80235
:10252000DC01CB01801B910BA20BB30B81319742D5
:10253000A105B10508F493C01092450490C08091A4
:10254000B402811108C088E30E94030D682F6E7FDA
:1025500088E30E94DC0C64E874E086E195E00E9468
:102560002C0CA4E6B5E08701065B1B4F5D0182E001
:10257000A80EB11C11967C9011978C918630A9F011
:1025800048F4813071F0833009F044C0B5018FEF19
:1025900092E00EC08A3379F08F3FD1F18333D1F5C9
:1025A0000AC0B50182E195E003C0B5018AEF92E06F
:1025B0000E942C0C2FC0F501CD01069620E030E0E2
:1025C000A9016191542F432F322F2227260F311D4D
:1025D000411D511DE817F907A1F72093BD02309363
:1025E000BE024093BF025093C0022F3F9FEF3907B6
:1025F0004907590779F0A8EEB3E00E947A19609371
:10260000BD027093BE028093BF029093C00202C0CD
:1026100081E001C080E0D501A70DB11D811104C08A
:10262000A017B10708F4A2CF0E94DE0A6093B90296
:102630007093BA028093BB029093BC028091FF0218
:10264000882359F01092040310920303D0920503DB
:102650006FEF72E0CB010E942C0CC0924504E11494
:10266000F10409F0BDC0809105038570E1F080910F
:10267000030390910403892BB1F461E184ED0E947E
:10268000DC0C61E082ED0E94DC0C8AEE0E94030DFE
:1026900080FDFBCF60E082ED0E94DC0C89ED0E94A2
:1026A000030D82FDF6C0809103039091040301960F
:1026B00090930403809303038091FE02813009F01C
:1026C0006FC08091050381FF6BC082E08093FE02A2
:1026D000809101018F5F80930101182F1F7184EF9A
:1026E00092E00E945B0A64EF72E0882319F085E3B0
:1026F00094E002C08FE294E00E94490C08E000934D
:1027000056041092570449E050E063E971E088E50F
:1027100094E00E94E4168CE280935B0486E0809350
:1027200061040E94D50B10926E0410926F048BE02E
:1027300080936C0410936D04E0E7F4E0DF011D92D8
:102740000A95E9F780910001809372048D5F809370
:10275000000180E68093780482E080937904C0923F
:102760007A0410927B0410927C0410927D041092E3
:102770007E0410927F0480938004B4E0B0938104BF
:102780008093820486E28093830422E040E250E05A
:102790006AE182E30E947D0B8AE390E00E94240DAF
:1027A0008AEF92E00E945B0A882349F08091F90247
:1027B000811105C08091F802882309F474C084EF68
:1027C00092E00E945B0A882309F458C08091F302CA
:1027D000811154C08091F202882309F46BC04EC06D
:1027E000E9E2EE16F10408F449C0809156048830FD
:1027F00009F044C080915704863009F097C044E046
:1028000050E066E175E080E794E00E94B619892BFC
:10281000A9F580915F04813029F580E594E00E945C
:10282000210C10925E0482E080935F0460E674E005
:102830008AE694E00E94020C6BE374E080E694E088
:102840000E94020C66E674E080E794E00E942C0C83
:1028500066E175E086E694E00E942C0C8AE290E046
:102860000E94240D8091050383FD2BC08091F90205
:102870008823A1F18091F3028823E9F10E946C0979
:1028800057CD86E195E00E94860D24E02093450413
:102890002CCE8FEF92E00E94A50E809105038860F8
:1028A0008093050300CF8AEF92E00E94A50ED0929C
:1028B000F80285CF84EF92E00E94A50ED092F2023A
:1028C000DDCF10915F04123089F66FE274E08FEF74
:1028D00092E00E940A0C811121C0C8CF8091F802B9
:1028E000882341F265E374E08AEF92E00E940A0CCB
:1028F000811117C0BFCF8091F202882309F4BECFA7
:1029000065E374E084EF92E00E940A0C882309F4E6
:10291000B5CFD092F3021092F202B0CF109305031C
:10292000A5CFD092F9021092F802A4CF69E2E61680
:10293000F10409F4A3CF8111A1CF8091580485340B
:1029400009F09CCF44E050E066E175E088E694E051
:102950000E94B619892BA9F044E050E06BE274E0C4
:1029600088E694E00E94B619892B59F044E050E0C3
:1029700066E371E088E694E00E94B619892B09F0BD
:102980007DCF809161048130E9F490916C0498309E
:10299000C9F42114310421F084E694E0F101099591
:1029A0000E94370C10926C0480916E04883F28F0CE
:1029B00090916F049F5F90936F04885F80936E0483
:1029C000C701C5C09091C102911106C0F6E3EF1690
:1029D000F10408F051C052CF8131C1F772ECA72E3B
:1029E00072E0B72E612C712C40E08091C10290E022
:1029F00068167906ECF5D50112965C91129713963C
:102A00009C91139720916E0430E09F831886EF818C
:102A1000F8852E173F0729F580916F04851321C093
:102A200014962C9114972223E1F00091710410E088
:102A3000085011092091700430E0322F2227020F34
:102A4000131F40916C0450E0542F442720916D04D3
:102A5000422BED91FC9124E734E064E674E00995A3
:102A600041E0FFEF6F1A7F0A25E0A20EB11CBDCF37
:102A7000442309F4ABCF02CF80916104863009F082
:102A8000FDCE80916E048B3009F0B9C044E050E077
:102A900064EF72E084E694E00E94B619892B09F095
:102AA000EDCE2091790422FF13C0EB84FC84E11465
:102AB000F10461F080916F0420E030E040E050E0EC
:102AC00063E0829586958770F701099585E081C05E
:102AD0002D870E94340B8C018091FE022D8582305F
:102AE00009F043C0822F80712271223199F560E094
:102AF00080E090E00E94D90E88E180937904E98417
:102B0000FA84E114F10449F080916D048295869570
:102B10008770F70109958C0102C000E010E0C092B7
:102B2000FE02C801889690935A0480935B040E9429
:102B3000D50B10927C0410927D04A801445E5F4F77
:102B400022E06AE182E30E947D0BC801C6960E94E2
:102B5000240D94CED092FE02811103C0C8010196CB
:102B600002C080E090E064E09EC08330A9F50115CA
:102B70001105A9F14114510491F18091780490E07C
:102B800024E0959587952A95E1F7880F991F880F7E
:102B9000991F8296A701485051098417950708F498
:102BA000AC01C801840F951FE816F90620F49701BF
:102BB000241B350B01C0980180916F0460E0829561
:102BC00086958770F201099569E0C8010E94D90EC7
:102BD00086E08093FE0252CE853009F44FCE20FF6E
:102BE00007C0833009F44ACE69E0C8010196EECFF0
:102BF0000115110509F442CE60E0C80154C08111ED
:102C00003DCE80916F04803509F038CE1091790463
:102C100011FF39C010925A048CE280935B040E9429
:102C2000370C82E18093790460E081E090E00E94BB
:102C3000500B1092700410927104809100018093E7
:102C40007204109273048D5F8093000182E0809380
:102C50008004F4E0F093810485E080938204109274
:102C6000830490E69093780480937A0488E78093B5
:102C70007B0422E040E250E06AE182E30E947D0BA7
:102C80008AE390E064CF14FFF9CD0E94340B909357
:102C9000EB028093EA02892B09F0F0CD10FFEECD14
:102CA00060E080E090E00E94D90EE8CDEEE5F5E02E
:102CB0001382128288EE93E0A0E0B0E084839583D3
:102CC000A683B78380E491E0918380838AE195E0D5
:102CD000958784878EE895E09787868785EC90E0D6
:102CE000918B808B84EC90E0938B828B80EC90E0D6
:102CF000958B848B81EC90E0978B868B82EC90E0B7
:102D0000918F808F86EC90E0938F828F84E0848F08
:102D100083E0858F87E0868F85E0878F81E080A3C1
:102D2000E2EDF5E080E591E09183808312821382E9
:102D300014821582E8EDF5E091838083128213827C
:102D4000148215820895EF920F931F93CF93DF9310
:102D5000E80147FD02C034E001C034E1E42F440F34
:102D6000FF0BF7FF03C0F195E195F109E32E022F68
:102D70002E2FAE010E94F516CE01DF91CF911F914B
:102D80000F91EF900895FC0188279927E8942191ED
:102D90002032E9F3293010F02E30C8F32B3241F005
:102DA0002D3239F4689404C00E94ED16820F911DF3
:102DB000219120532A30C0F31EF4909581959F4FA6
:102DC0000895F8940C94991BFB01DC0102C0059056
:102DD0000D9241505040D8F708957AE0979F902D7A
:102DE000879F802D910D112408954F925F926F92CD
:102DF0007F929F92AF92BF92CF92DF92EF92FF921B
:102E00000F931F93CF93DF93CDB7DEB729970FB6FC
:102E1000F894DEBF0FBECDBF6A01122FB02E2BE398
:102E2000201720F0FF24F394F00E02C0BCE3FB2E29
:102E30000F2D27E0AE014F5F5F4F0E948318AC015A
:102E40008981982F9970913031F0E1FC06C0E0FE45
:102E500006C090E205C09DE203C09BE201C090E085
:102E6000EE2DE07183FF3CC0911102C083E001C0F0
:102E700084E0811718F4212F281B01C020E0E11104
:102E80000BC0F601822F30E2882319F03193815074
:102E9000FBCFC20ED11C20E0992329F0D6019C93D0
:102EA000F60131966F01C6010396E2FE0AC03EE4C8
:102EB000D6013C9341E411964C93119712963C93A2
:102EC00006C03EE6F601308341E641833283FC01D1
:102ED000322F40E2332309F442C041933150FACFFC
:102EE00082FF44C0911102C083E001C084E08117D9
:102EF00018F4212F281B01C020E0E1110BC0F601BE
:102F0000822F30E2882319F031938150FBCFC20E1B
:102F1000D11C20E0992329F0D6019C93F60131962B
:102F20006F01C6010396E2FE0BC039E4D6013C9363
:102F30003EE411963C93119736E412963C9307C0F9
:102F400039E6F60130833EE6318336E63283FC0112
:102F5000322F40E2332319F041933150FBCFFC0173
:102F6000E20FF11D10828EEF9FEFB7C0F1E09111DB
:102F700001C0F0E06F2F70E01416150624F49A01DA
:102F80002F5F3F4F02C021E030E0260F371FBB20EC
:102F900029F06B2D70E06F5F7F4F02C060E070E042
:102FA000260F371F612F70E0261737071CF4121BFE
:102FB000212F01C020E03E2D387159F4D601322F67
:102FC00060E2332319F06D933150FBCFC20ED11C58
:102FD00020E0FF2331F0D6019C93B6016F5F7F4F55
:102FE0006B01E1110BC0F601922F30E3992319F028
:102FF00031939150FBCFC20ED11C20E09F2D940F36
:103000003A81782F7071A72E84FF03C0313309F401
:103010009150191624F4993018F098E001C091E00D
:10302000E42F852F57FF02C0E0E080E06E2F782F5D
:10303000E0E0F0E0AEE29A2E3A01691A71082A0146
:10304000461A570A0B2D10E01195019511096F3F93
:103050008FEF780729F4D6019C92C60101966C0186
:103060004617570784F0661677066CF47F01E40C68
:10307000F51CA1E0B0E0AC0FBD1FEA0EFB1ED701AE
:103080001196BC9002C090E3B92E6150710931963F
:10309000C60101967C016017710724F0D601BC922D
:1030A0006C01D5CF6417750741F4363320F43533FE
:1030B00021F4A11002C081E3B82EF601B082F7011D
:1030C000822F90E2882319F091938150FBCFF70172
:1030D000E20FF11D108280E090E029960FB6F8947F
:1030E000DEBF0FBECDBFDF91CF911F910F91FF903B
:1030F000EF90DF90CF90BF90AF909F907F906F90B8
:103100005F904F900895283008F027E03327DA01C8
:10311000990F311D87FD916000966105710539F4A5
:1031200032602E5F3D9330E32A95E1F708959F3F8B
:1031300030F080387105610509F03C5F3C5F3D93DC
:10314000913008F08068911DDF93CF931F930F9308
:10315000FF92EF92192F987F9695E92F9695969565
:10316000E90FFF27EE53FF4F99273327EE24FF2463
:10317000A701E70105900894079428F4360FE71E8D
:10318000F81E491F511D660F771F881F991F06944F
:10319000A1F70590079428F4E70EF81E491F561F63
:1031A000C11D770F881F991F661F0694A1F7059010
:1031B000079428F4F80E491F561FC71FD11D880F0A
:1031C000991F661F771F0694A1F70590079420F4B6
:1031D000490F561FC71FD81F990F661F771F881FDB
:1031E0000694A9F784911095177041F0D695C7956C
:1031F00057954795F794E7941A95C1F7E8E6F0E0FC
:1032000068941590159135916591959105907FE29F
:103210007395E118F10A430B560BC90BD009C0F79F
:10322000E10CF11E431F561FC91FD01D7EF47033E1
:1032300011F48A95E6CFE894015030F0080F0AF4B3
:103240000027021708F4202F2395022F7A3328F045
:1032500079E37D932A95E9F710C07D932A9589F645
:10326000069497956795379517951794E118F10A85
:10327000430B560BC90BD00998F023957E9173959B
:103280007A3308F070E37C932013B8F77E91706175
:103290007D9330F0839571E37D9370E32A95E1F798
:1032A0001124EF90FF900F911F91CF91DF919927FB
:1032B00087FD90950895052E97FB1EF400940E94BB
:1032C000721957FD07D00E94851907FC03D04EF4F0
:1032D0000C94721950954095309521953F4F4F4F62
:1032E0005F4F089590958095709561957F4F8F4FB2
:1032F0009F4F08950E94A719A59F900DB49F900D10
:10330000A49F800D911D11240895A1E21A2EAA1BDD
:10331000BB1BFD010DC0AA1FBB1FEE1FFF1FA21785
:10332000B307E407F50720F0A21BB30BE40BF50B82
:10333000661F771F881F991F1A9469F7609570950B
:10334000809590959B01AC01BD01CF010895A29F8E
:10335000B001B39FC001A39F700D811D1124911D69
:10336000B29F700D811D1124911D0895FB01DC0198
:1033700004C08D910190801921F441505040C8F74C
:10338000881B990B0895FB01DC0102C001900D928E
:1033900041505040D8F70895FC018191861721F0E3
:1033A0008823D9F7992708953197CF010895FB0114
:1033B000DC018D91019080190110D9F3990B0895CA
:1033C000FB01DC0101900D920020E1F70895FB0163
:1033D000DC014150504048F001900D920020C9F7A7
:1033E00001C01D9241505040E0F708955058BB274E
:1033F000AA270E940E1A0C94291B0E941B1B38F04E
:103400000E94221B20F039F49F3F19F426F40C94FB
:10341000181B0EF4E095E7FB0C94121BE92F0E9499
:103420003A1B58F3BA17620773078407950720F011
:1034300079F4A6F50C945C1B0EF4E0950B2EBA2FD4
:10344000A02D0B01B90190010C01CA01A0011124AA
:10345000FF27591B99F0593F50F4503E68F11A1656
:10346000F040A22F232F342F4427585FF3CF4695E7
:1034700037952795A795F0405395C9F77EF41F1609
:10348000BA0B620B730B840BBAF09150A1F0FF0FD3
:10349000BB1F661F771F881FC2F70EC0BA0F621FBF
:1034A000731F841F48F4879577956795B795F795AF
:1034B0009E3F08F0B0CF9395880F08F09927EE0F44
:1034C0009795879508950E94771A0C94291B0E945E
:1034D000221B58F00E941B1B40F029F45F3F29F08B
:1034E0000C94121B51110C945D1B0C94181B0E9420
:1034F0003A1B68F39923B1F3552391F3951B550BB0
:10350000BB27AA2762177307840738F09F5F5F4FB6
:10351000220F331F441FAA1FA9F335D00E2E3AF0F5
:10352000E0E832D091505040E695001CCAF72BD00D
:10353000FE2F29D0660F771F881FBB1F261737075E
:103540004807AB07B0E809F0BB0B802DBF01FF2790
:1035500093585F4F3AF09E3F510578F00C94121B40
:103560000C945D1B5F3FE4F3983ED4F3869577950A
:103570006795B795F7959F5FC9F7880F911D969549
:10358000879597F90895E1E0660F771F881FBB1FA5
:10359000621773078407BA0720F0621B730B840B52
:1035A000BA0BEE1F88F7E0950895E89409C097FBE1
:1035B0003EF490958095709561957F4F8F4F9F4F0A
:1035C0009923A9F0F92F96E9BB279395F69587954E
:1035D00077956795B795F111F8CFFAF4BB0F11F411
:1035E00060FF1BC06F5F7F4F8F4F9F4F16C08823B8
:1035F00011F096E911C0772321F09EE8872F762FEE
:1036000005C0662371F096E8862F70E060E02AF02E
:103610009A95660F771F881FDAF7880F969587951A
:1036200097F9089597F99F6780E870E060E0089542
:103630009FEF80EC089500240A94161617061806CA
:103640000906089500240A941216130614060506A6
:103650000895092E0394000C11F4882352F0BB0F37
:1036600040F4BF2B11F460FF04C06F5F7F4F8F4F9A
:103670009F4F089557FD9058440F551F59F05F3FD5
:1036800071F04795880F97FB991F61F09F3F79F084
:1036900087950895121613061406551FF2CF469506
:1036A000F1DF08C0161617061806991FF1CF869588
:1036B0007105610508940895E894BB27662777276C
:1036C000CB0197F908950E94681B08F48FEF0895C5
:1036D000990F0008550FAA0BE0E8FEEF1616170623
:1036E000E807F907C0F012161306E407F50798F08B
:1036F000621B730B840B950B39F40A2661F0232BA4
:10370000242B252B21F408950A2609F4A140A6951F
:103710008FEF811D811D08950E94A719B7FF08959D
:10372000821B930B0895EE0FFF1F0590F491E02D7F
:063730000994F894FFCF9C
:103736000A01FF41726475696E6F2D454E4332383A
:103746006A36302D30300000000000000000000016
:10375600000000FFFFFF00C0A80101C0A8015FFF35
:10376600FFFFFFFF0200FFFFFFFFFFFF000000005B
:10377600D30815015C09200940091509000000005D
:1037860001020000000014015B53544152545D00D5
:1037960041726475696E6F2049503A200041726427
:1037A60075696E6F20506F72743A200052617370A3
:1037B600626572727920506920506F72743A2000E7
:1037C6005261737062657272792050692049503A6D
:1037D60020005061796C6F61643A20003C2D2044D2
:1037E6004154412052454345495645440044656C81
:1037F600696D69746572205175616E746974793A80
:103806002000436F6D6D616E642023003C2D2044C3
:1038160041544120504152534544005B50524F435E
:103826004553535D0050696E3A20004C6576656CD1
:103836003A20007772697465005B57726974655D3A
:10384600007265616400616E616C6F670070776D10
:10385600006672657100746F6E65005265747572EC
:103866006E3A20005265706C793A20005265706C91
:1038760079204C656E6774683A20005761746368F6
:10388600646F672052657365742E2E2E00436F6D2C
:103896006D616E6420436F6D706C657465642E2E69
:1038A6002E002D2D2D2D2D2D2D2D2D2D2D2D2D2D6E
:1038B6002D2D2D2D2D2D2D2D2D2D2D2D2D2D2D2D32
:1038C6002D2D2D2D2D2D2D2D2D2D2D2D2D2D2D2D22
:0838D6002D2D2D2D2D2D2D00AF
:00000001FF
