:100000000C94EA000C9412010C9412010C9412014D
:100010000C9412010C9412010C9412010C943504EE
:100020000C9412010C9412010C9412010C94120104
:100030000C9412010C9412010C9412010C941201F4
:100040000C943C0B0C9412010C948A0F0C944F0FDF
:100050000C9412010C9412010C9412010C941201D4
:100060000C9412010C94120100407A10F35A00A073
:10007000724E18090010A5D4E80000E87648170071
:1000800000E40B54020000CA9A3B000000E1F505B1
:10009000000080969800000040420F000000A086FB
:1000A00001000000102700000000E803000000002D
:1000B0006400000000000A000000000001000000D1
:1000C00000002C76D888DC674F0823DFC1DFAE59EB
:1000D000E1B1B796E5E3E453C63AE651997696E87E
:1000E000E6C28426EB898C9B62ED407C6FFCEFBC02
:1000F0009C9F40F2BAA56FA5F490055A2AF75C932D
:100100006B6CF9676DC11BFCE0E40D47FEF520E662
:10011000B500D0ED902E0300943577050080841E45
:10012000080000204E0A000000C80C333333330FA0
:10013000986E12831141EF8D2114893BE65516CF3D
:10014000FEE6DB18D1844B381BF77C1D901DA4BB49
:10015000E424203284725E228100C9F124ECA1E5FE
:100160003D2700000000240027002A0000000000B6
:10017000250028002B0000000007000201000003FA
:100180000406000000000000000002000108000654
:100190000400014500008200004000206382536398
:1001A00000000000230026002900040404040404C5
:1001B0000404020202020202030303030303010216
:1001C00004081020408001020408102001020408E5
:1001D0001020A81611241FBECFEFD8E0DEBFCDBF80
:1001E00012E0A0E0B1E0EEEEF7E302C005900D9260
:1001F000AA3AB107D9F725E0AAEAB2E001C01D92F8
:10020000A63EB207E1F710E0CAEED0E004C02197A5
:10021000FE010E94EF1BC93ED107C9F70E94C40F1F
:100220000C943D170C9400000895CF92DF92EF924A
:10023000FF920F931F93CF93DF936C01EB017B0130
:10024000E40EF51E00E010E0CE15DF0561F06991C7
:10025000D601ED91FC910190F081E02DC601099548
:10026000080F191FF1CFC801DF91CF911F910F9196
:10027000FF90EF90DF90CF900895833081F028F4C5
:10028000813099F08230A1F008958630A9F087304E
:10029000B9F08430D1F4809180008F7D03C08091CB
:1002A00080008F7780938000089584B58F7702C097
:1002B00084B58F7D84BD08958091B0008F7703C091
:1002C0008091B0008F7D8093B0000895CF93DF932D
:1002D000282F30E0F901EA58FE4F8491F901E254E9
:1002E000FE4FD491F901E655FE4FC491CC2391F015
:1002F00081110E943D01EC2FF0E0EE0FFF1FE05650
:10030000FE4FA591B491EC91ED2381E090E021F4B2
:1003100080E002C080E090E0DF91CF910895DC01A1
:10032000ED91FC910190F081E02D0994611571052A
:1003300079F0FB0101900020E9F73197AF01461BEE
:10034000570BDC01ED91FC910280F381E02D0994C3
:1003500080E090E008958F929F92AF92BF92CF92EB
:10036000DF92EF92FF920F931F93CF93DF93CDB75E
:10037000DEB7A1970FB6F894DEBF0FBECDBF6C01FC
:10038000142FE52FCB01022F19A2223008F40AE026
:100390007E0121E2E20EF11C802E912CA12CB12CC9
:1003A000612F7E2FA50194010E94E119029F10196F
:1003B000112481E0E81AF1081A3014F4105D01C02C
:1003C000195CF7011083122FE32FCA01232B242B72
:1003D000252B31F7B701C6010E949601A1960FB6F1
:1003E000F894DEBF0FBECDBFDF91CF911F910F916B
:1003F000FF90EF90DF90CF90BF90AF909F908F9045
:1004000008958F929F92AF92BF92CF92DF92EF9218
:10041000FF920F931F93CF93DF937C018B016C01AD
:1004200082E0C80ED11C4701E5E08E0E911CC0E0B1
:10043000D0E0F60141916F0150E060E070E02AE009
:10044000C8010E94AB015C016EE2C8010E948F01ED
:100450008A0D9B1DC80FD91FC814D90451F7F70185
:10046000458150E060E070E02AE0C8010E94AB01E5
:100470008C0F9D1FDF91CF911F910F91FF90EF90F7
:10048000DF90CF90BF90AF909F908F9008952F9264
:100490003F924F925F926F927F928F929F92AF9214
:1004A000BF92CF92DF92EF92FF920F931F93CF9361
:1004B000DF93CDB7DEB768970FB6F894DEBF0FBEF7
:1004C000CDBF7C018B01742E652E690183E791E01D
:1004D0000E94610AC7010E94660A82E891E00E94B8
:1004E000610A872D962D0E94660A86E991E00E9496
:1004F000610AC8010E94360C87EA91E00E94D40983
:1005000088EA91E00E94610AC6010E94D40982EB48
:1005100091E00E94D4099E012F5F3F4F7901CE01E7
:100520004596F90111921192E817F907D9F7570189
:1005300000E010E00115110579F46AE370E0C601EE
:100540000E94281A009719F08C199D0902C08FEF9C
:100550009FEF9A8389831CC0F50132978080918038
:100560003FEF831A930A2601480C591C6AE370E096
:10057000C2010E94281A009799F0841995098F3FAB
:10058000EFEF9E0769F0880D991DF5019183808337
:100590000F5F1F4FF2E0AF0EB11C0A30110551F68C
:1005A00083EC91E00E94610AC8010E94780A26E16A
:1005B000209FC001219F900D11249C012F503A4E85
:1005C0003E8B2D8B81EFA82E85E1B82E212C312C6E
:1005D00021012394C8010197880F991FF701E80FA3
:1005E000F91FF88FEF8BC101019761F449815A819E
:1005F000B60181EF95E10E94431AE981FA81EF503B
:10060000FA4E24C08017910769F4EF89F88D608154
:1006100071816F5F7F4F6C0D7D1D8D899E890E945A
:100620003C1A15C0F7013297608171816F5F7F4F6F
:10063000F70180809180861A970A6C0D7D1DA401B8
:10064000C5010E94431AF501E80DF91D108288EDDD
:1006500091E00E94610A2AE0B201A10180E695E0E2
:100660000E94AB0185EA91E00E94610AC5010E94E7
:10067000D409FFEF2F1A3F0A4F0A5F0A26E1A20EA4
:10068000B11C32E0E30EF11CC101019708171907F4
:100690000CF0A9CF82EE91E00E94D40981EF95E1A0
:1006A0000E94D40987E096E10E94D4098DE196E189
:1006B0000E94D409E0918205F09183050190F081B8
:1006C000E02D82E895E0099581EF91E00E94610AB2
:1006D00083EF93E00E94D40989EF91E00E94610AC0
:1006E00003EF13E0F80101900020E9F7CF01019733
:1006F000835F93400E94660A88E092E00E94D409DA
:100700008DE192E00E94D409F80101900020E9F700
:100710003197E35FF3401E2FED3D08F01CEDE12E15
:10072000F12C10925C048CE1810F80935D040E9497
:10073000890C80916E048093700480916F04809383
:10074000710460926E0470926F0410927204E8E07B
:10075000E10FE09373041092740410927504A701E2
:1007600063EF73E086E794E00E941F1AA701405FE1
:100770005F4F21E06AE188E20E94CF0BC7018A96B1
:1007800068960FB6F894DEBF0FBECDBFDF91CF9154
:100790001F910F91FF90EF90DF90CF90BF90AF909F
:1007A0009F908F907F906F905F904F903F902F9091
:1007B0000C94760D1F93CF93DF93282F30E0F9012F
:1007C000EA58FE4F8491F901E254FE4FD491F901A9
:1007D000E655FE4FC491CC23C9F0162F81110E941B
:1007E0003D01EC2FF0E0EE0FFF1FE459FE4FA59105
:1007F000B4918FB7F894111105C09C91ED2FE0953D
:10080000E92302C0EC91ED2BEC938FBFDF91CF91E8
:100810001F91089590910201981324C0EAE8F1E035
:10082000E4919FEF90930201E130B9F098F0E2304B
:10083000C9F4909170009D7F9093700091E0909327
:10084000B0009091B100987F94609093B1001092A5
:10085000B30008C010926E0005C090916F009D7F9C
:1008600090936F0060E00C94DA031F920F920FB622
:100870000F9211242F933F934F935F936F937F9326
:100880008F939F93AF93BF93EF93FF93809128042F
:1008900090912904A0912A04B0912B04892B8A2BD2
:1008A0008B2B51F180912704E0912504F0912604CF
:1008B0009081892780838091280490912904A091B8
:1008C0002A04B0912B04181619061A061B06C4F444
:1008D0008091280490912904A0912A04B0912B04BE
:1008E0000197A109B1098093280490932904A0934A
:1008F0002A04B0932B0404C0809102010E940A04D0
:10090000FF91EF91BF91AF919F918F917F916F91E7
:100910005F914F913F912F910F900FBE0F901F90BD
:100920001895CF93DF9390E0FC01E254FE4F2491A1
:10093000FC01E655FE4F8491882361F190E0880F19
:10094000991FFC01EE59FE4FC591D491FC01E45969
:10095000FE4FA591B491611109C09FB7F8948881A9
:10096000209582238883EC912E230BC0623061F4A2
:100970009FB7F8943881822F809583238883EC91E8
:100980002E2B2C939FBF06C08FB7F894E8812E2B97
:1009900028838FBFDF91CF9108952F923F924F927E
:1009A0005F926F927F928F929F92AF92BF92CF92FF
:1009B000DF92EF92FF920F931F93CF93DF9300D0BC
:1009C00000D000D0CDB7DEB783E592E00E94D40915
:1009D00087E096E10E941F177C018DE196E10E945D
:1009E0001F17182F8D839E8383E396E10E941F17A4
:1009F0001C0189E496E10E941F176C018DE592E0CD
:100A00000E94610AC7010E94780A83E692E00E9470
:100A1000610A8D819E810E94660A6BE672E081EF19
:100A200095E10E94331A892B29F581E792E00E9413
:100A3000D40961E08E2D0E949104612F8E2D0E94B9
:100A4000DA038E2D0E9466012D813E818217930765
:100A500019F06EE077E202C06FE077E2072E000C3B
:100A6000880B990B0E94331B03EF13E020E041E059
:100A70000E94FF1669E772E081EF95E10E94331A48
:100A8000892BA9F48E2D0E94660161E070E0892B0C
:100A900011F460E070E0072E000C880B990B0E94A7
:100AA000331B03EF13E020E041E00E94FF1660E8F3
:100AB00072E081EF95E10E94331A892BC9F462E05C
:100AC0008E2D0E9491048E2D0E94660161E070E0DF
:100AD000892B11F460E070E0072E000C880B990B55
:100AE0000E94331B03EF13E020E041E00E94FF1659
:100AF00065E872E081EF95E10E94331A892B69F570
:100B0000C7011E141F040CF00E969C012E503109D3
:100B100028303105A0F48E50806480937C00809151
:100B20007A00806480937A0080917A0086FDFCCF01
:100B3000609178008091790070E0782B02C06BE0C2
:100B400077E2072E000C880B990B0E94331B03EFF2
:100B500013E020E041E00E94FF166CE872E081EFB4
:100B600095E10E94331A892B09F094C033E0E31613
:100B7000F10449F0C7010597029728F089E0E816CB
:100B8000F10409F079C02D813E818D819E818536E9
:100B9000910510F024E630E0AFEFB0E00E94031AB8
:100BA00024E630E040E050E00E94B719390161E0EE
:100BB0008E2D29833A834B835C830E949104298183
:100BC0003A814B815C81211531054105510509F4BC
:100BD0004AC02F3F31054105510509F446C0F701D0
:100BE000FF27EA58FE4FE491E330F9F048F4E13092
:100BF000B9F0E230A1F584B5806284BD28BD39C06A
:100C0000E630E9F0E73019F1E43049F580918000F1
:100C100080628093800030938B0020938A0029C0EB
:100C200084B5806884BD27BD24C080918000806821
:100C30008093800030938900209388001AC08091AF
:100C4000B00080688093B0002093B30012C0809100
:100C5000B00080628093B0002093B4000AC090E896
:100C60006916710414F460E001C061E08E2D0E94E9
:100C7000DA036FE077E202C06AE077E2072E000C49
:100C8000880B990B0E94331B03EF13E020E041E037
:100C90000E94FF1660E972E081EF95E10E94331A2D
:100CA000892BD9F560E08E2D0E94910461E08E2D94
:100CB0000E94E3092B013C0160E08E2D0E94E309B4
:100CC0004B015C01C301B2010E94311B2B013C01AD
:100CD000C501B4010E94311B9B01AC01C301B201EB
:100CE0000E94531A2B013C0120E030E0A9010E9430
:100CF000BF1B18164CF4A301920160E074E284E774
:100D000099E40E94BF1A03C060E070E0CB0103EFDA
:100D100013E021E043E00E94FF1665E972E081EFF5
:100D200095E10E94331A8C01892B09F0E0C1CA9425
:100D3000CD2809F0CAC1C101032C000CAA0BBB0BC2
:100D40008F319105A105B10508F4BFC10097A140FD
:100D5000B10508F0BAC1809102018E1521F08F3FD4
:100D600009F0B7C104C0EAE8F1E014917DC0E09257
:100D70000201EAE8F1E014911F3F09F4AAC1113021
:100D800029F1123009F449C011116EC014BC15BC10
:100D900084B5826084BD85B5816085BDC701992712
:100DA000FC01E655FE4FE491F0E0EE0FFF1FE45921
:100DB000FE4F259134913093EA032093E903FC011F
:100DC000E254FE4FE491E093E80350C0109280009B
:100DD00010928100809181008860809381008091D1
:100DE0008100816080938100C7019927FC01E6554D
:100DF000FE4FE491F0E0EE0FFF1FE459FE4F259106
:100E000034913093E7032093E603FC01E254FE4F54
:100E1000E491E093E50311E029C01092B000109234
:100E2000B1008091B00082608093B0008091B100E9
:100E300081608093B100C7019927FC01E655FE4F00
:100E4000E491F0E0EE0FFF1FE459FE4F259134913D
:100E50003093260420932504FC01E254FE4FE491D4
:100E6000E093270412E002C017FD33C161E08E2D2C
:100E70000E9491048D819E812C01612C712C812F07
:100E80008D7F09F0AFC060E072E18AE790E0A301D6
:100E900092010E94B71949015A0169017A0191E052
:100EA000C91AD108E108F1082FEFC216D104E104F4
:100EB000F10409F008F44BC060E472E48FE090E0C4
:100EC000A30192010E94B71969017A0181E0C81A51
:100ED000D108E108F108123001F59FEFC916D104DD
:100EE000E104F10409F008F47CC160E970ED83E0ED
:100EF00090E0A30192010E94B71969017A0181E093
:100F0000C81AD108E108F1089FEFC916D104E1041D
:100F1000F10409F0A8F583E062C02FEFC216D104F6
:100F2000E104F104B1F0A8F068E478EE81E090E02B
:100F3000A30192010E94B71969017A0181E0C81AE0
:100F4000D108E108F108112309F429C11FC181E08A
:100F500001C082E0112391F042C0D501C4012AE012
:100F6000B595A795979587952A95D1F76C017D0141
:100F700031E0C31AD108E108F10885E085BD61C000
:100F800068E478EE81E090E0A30192010E94B71935
:100F900069017A0191E0C91AD108E108F1082FEF3F
:100FA000C216D104E104F10409F008F4C0C064E2FF
:100FB00074EF80E090E0A30192010E94B7196901EB
:100FC0007A0191E0C91AD108E108F1082FEFC216A1
:100FD000D104E104F10411F008F0ABC085E0809386
:100FE000B1002FC060E072E18AE790E0A3019201B6
:100FF0000E94B71969017A0181E0C81AD108E10895
:10100000F108C114D10491E0E906F10488F068E424
:1010100078EE81E090E0A30192010E94B719690186
:101020007A0181E0C81AD108E108F10893E001C013
:1010300091E0113031F480918100887F892B809379
:1010400081002D813E81220F331FD1010E94E81BB8
:1010500028EE33E040E050E00E94E119113099F0B1
:10106000123019F1111135C0C7BC2093EF03309332
:10107000F0034093F1035093F20380916E0082607D
:1010800080936E0026C0D0928900C0928800209381
:10109000EB033093EC034093ED035093EE03809108
:1010A0006F00826080936F0014C0C092B3002093E1
:1010B00028043093290440932A0450932B048091F0
:1010C000700082608093700004C08E2D0E940A041C
:1010D00002C00FE017E2B801110F880B990B0E94B4
:1010E000331B03EF13E021E043E00E94FF168AE97F
:1010F00092E00E94610A83EF93E026960FB6F8947F
:10110000DEBF0FBECDBFDF91CF911F910F91FF903A
:10111000EF90DF90CF90BF90AF909F908F907F9097
:101120006F905F904F903F902F900C94D40984E083
:1011300056CF62E17AE780E090E0A30192010E943D
:10114000B71969017A0181E0C81AD108E108F108EC
:101150009FEFC916D104E104F104B1F0A8F0D50164
:10116000C4015AE0B595A795979587955A95D1F7FB
:101170006C017D0131E0C31AD108E108F1081123A7
:1011800009F4FBCE87E02BCF86E0E4CE2FEFC2162A
:10119000D104E104F10409F060F684E0DBCE2FEF26
:1011A000C216D104E104F104D1F0C8F062E17AE79B
:1011B00080E090E0A30192010E94B71969017A01D1
:1011C00081E0C81AD108E108F1089FEFC916D104DF
:1011D000E104F10411F008F0C0CE84E0CFCE83E04A
:1011E000CDCE82E0FCCEE0919405F09195059F0173
:1011F0002F5F3F4F3093950520939405808308958A
:10120000EF92FF920F931F93CF93DF931F92CDB76F
:10121000DEB7062F142F59830E94F308802F0E94F7
:10122000F308E12E5981F52E100F1E1531F0F7014C
:1012300081917F010E94F308F8CF0F90DF91CF9149
:101240001F910F91FF90EF9008950F931F93CF93ED
:10125000DF93FC01A685B7858D01005C1F4FE80177
:101260008881998101968F739927AD014E5B5F4FFD
:10127000EA012881398182179307D1F3E801288197
:101280003981A20FB31F6C93A685B785A05CBF4FB1
:1012900011969C938E93A689B7892C9181E090E05A
:1012A000078C02C0880F991F0A94E2F7822B8C9357
:1012B00081E081A30488F589E02D808180648083AA
:1012C00081E090E0DF91CF911F910F910895FC0193
:1012D00081A1882329F0A489B5898C9186FFFBCF51
:1012E00011A20895FC01A485B585FD01E05CFF4FC6
:1012F000208131813296808191812817390779F0D8
:1013000080819181A80FB91F8C91208131812F5F3D
:101310003F4F2F7333273183208390E008958FEF61
:101320009FEF0895DC011C96ED91FC911D97DF0164
:10133000A05CBF4F2D913C91119712968D919C917D
:1013400011972817390739F08D919C91E80FF91FF3
:10135000808190E008958FEF9FEF0895FC01248530
:101360003585F901E05CFF4F8081918132962081C3
:101370003181821B930B8F739927089580E695E046
:101380000C94AE09CF93DF936DE080E695E00E9468
:101390008F01EC016AE080E695E00E948F018C0FDE
:1013A0009D1FDF91CF910895CF93DF93BC0180E61D
:1013B00095E00E949601EC010E94C2098C0F9D1FCE
:1013C000DF91CF910895CF92DF92EF92FF92CF936A
:1013D000DF9390E0FC01E254FE4FD491FC01E6550E
:1013E000FE4F8491662311F0CD2F01C0C0E090E044
:1013F000880F991F80569E4F40E050E0BA01FC01D3
:10140000A591B491EC91ED23EC1318C04F5F5F4FA1
:101410006F4F7F4F413422E452072FE0620771057E
:1014200071F745C04F5F5F4F6F4F7F4F413422E4EC
:1014300052072FE06207710509F439C0FC01A5913C
:10144000B491EC91ED23EC13EDCF30E4C32E32E4F4
:10145000D32E3FE0E32EF12CC41AD50AE60AF70A90
:1014600020E030E0A901FC01A591B491EC91ED23BD
:10147000EC130AC02C153D054E055F05C1F02F5F2A
:101480003F4F4F4F5F4FEFCFA5E1B0E00E94D6191D
:10149000DC01CB014096A11DB11DBC01CD0124E0B2
:1014A00096958795779567952A95D1F703C060E063
:1014B00070E0CB01DF91CF91FF90EF90DF90CF9064
:1014C0000895BC0180E695E00C949601CF93DF93DC
:1014D000AC0160E070E02AE080E695E00E94AB019C
:1014E000EC010E94C2098C0F9D1FDF91CF910895DE
:1014F000CF92DF92EF92FF92CF93DF936C01990F1F
:10150000EE08FF08F7FE16C06DE280E695E00E9447
:101510008F01EC0144275527BA014C195D096E096A
:101520007F092AE080E695E00E94AB017C01EC0E89
:10153000FD1E08C02AE0B701A60180E695E00E94E2
:10154000AB017C010E94C2098E0D9F1DDF91CF91DE
:10155000FF90EF90DF90CF900895CF93DF93FC0141
:10156000809118058823A1F08081882389F0A8E163
:10157000B5E0C4E1D5E08D9121919991822789232D
:1015800031F485E0AC31B807B1F781E001C080E00B
:10159000DF91CF910895CF92DF92EF92FF920F9358
:1015A0001F938634910568F120916F04233449F527
:1015B000C0907A04D0907B04E0907C04F0907D048D
:1015C000009148041091490420914A0430914B0441
:1015D000C016D106E206F306A1F4E6E6F5E0845B68
:1015E0009B4F9F012E5F3F4F41815081553319F42E
:1015F0005281561741F0F901E40FF11DE817F90780
:1016000080F380E001C081E01F910F91FF90EF9087
:10161000DF90CF9008953FB7F89480919005909116
:101620009105A0919205B091930526B5A89B05C0A0
:101630002F3F19F00196A11DB11D3FBFBA2FA92F51
:10164000982F8827820F911DA11DB11DBC01CD01CE
:1016500042E0660F771F881F991F4A95D1F70895BA
:101660002FB7F89460918C0570918D0580918E054F
:1016700090918F052FBF08951F920F920FB60F9272
:1016800011242F933F938F939F93AF93BF93809198
:101690008C0590918D05A0918E05B0918F053091AC
:1016A0008B0523E0230F2D3720F40196A11DB11DDA
:1016B00005C026E8230F0296A11DB11D20938B05BE
:1016C00080938C0590938D05A0938E05B0938F0524
:1016D0008091900590919105A0919205B09193050C
:1016E0000196A11DB11D8093900590939105A09343
:1016F0009205B0939305BF91AF919F918F913F91C8
:101700002F910F900FBE0F901F90189580915C0441
:1017100090E0982F882720915D04822B4497209198
:101720007A0430E044E0359527954A95E1F7220F99
:10173000331F220F331F821B930B97FF02C080E0E1
:1017400090E008952091700430916E0430937004FD
:1017500020936E042091710430916F0430937104D2
:1017600020936F0426E734E0AAE7B4E0F901429140
:10177000840F911D4E918C93662311F0408301C01C
:101780001082892F992744E04E0F4213F0CF109218
:101790007E0410927F0480E580937A0408950F936D
:1017A0001F93CF93DF9370E0645B7B4F213021F474
:1017B0008A01075F1F4F0CC0223039F000E010E0B3
:1017C0009801DB011196EA0106C08A010250110955
:1017D00020E030E0F6CFC230D10578F0FD0131973E
:1017E000E081F0E0FE2FEE279C91E92B0E0F1F1FEA
:1017F000211D311D22971296EECFFA01EE7FE60FE2
:10180000F71F40FF0CC0408150E060E070E0762F91
:10181000652F542F4427040F151F261F371FA901BA
:1018200066277727411551056105710519F02227B3
:101830003327F1CF00951095E82FF0E0E45BFB4FE4
:1018400010830183DF91CF911F910F910895ECE4F4
:10185000F4E0108E118E80E4848B158A868B20E054
:1018600044E150E06EE088E10C94CF0B0F931F939E
:10187000CF938C01C0E0F80141918F0150E060E00E
:1018800070E02AE080E695E00E94AB01C33029F0C9
:101890006EE280E695E00E948F01CF5FC43059F779
:1018A000CF911F910F910895DC0196E0FB0101900B
:1018B0000D929A95E1F70895CF93DF93EB0144E001
:1018C00050E0BC0188E694E00E94121A892B39F49A
:1018D00062E674E0CE010E94540C81E001C080E019
:1018E000DF91CF910895BC018CE494E00E94540CE8
:1018F0006DE374E082E594E00C94540CFB014081AC
:10190000518162817381FC014083518362837383BF
:10191000089582E594E00E94730C66E674E08AE61E
:1019200094E00E947E0C68E175E086E694E00E94F7
:101930007E0C0C94270CCF93DF9300D0CDB7DEB78D
:1019400069837A830E94730C69817A818AE694E0C4
:101950000E947E0C68E175E086E694E00F900F909F
:10196000DF91CF910C947E0C8EBD0DB407FEFDCFA0
:10197000089561E080912C040E94DA037894089520
:10198000F89460E080912C040C94DA030F931F9379
:10199000CF93DF93EC018B010E94C00C2097B9F02C
:1019A0008AE30E94B40C1EBCF801CE01019739F005
:1019B0000DB407FEFDCF2EB51EBC2193F7CF2197A6
:1019C000C00FD11F0DB407FEFDCF8EB58883DF9108
:1019D000CF911F910F910C94B90CCF93DF9300D04E
:1019E0001F92CDB7DEB74B836A8389830E94C00CF8
:1019F0006A816F718981862B0E94B40C4B81842F80
:101A00000E94B40C0F900F900F90DF91CF910C9427
:101A1000B90C1F93CF93DF93182F1076C12FD0E00E
:101A200020918A0530E0C217D307A1F043E06FE1AF
:101A300080EA0E94ED0C10938A05AE0185E0559571
:101A400047958A95E1F76FE180E8DF91CF911F918B
:101A50000C94ED0CDF91CF911F9108951F93CF93BC
:101A6000DF931F92CDB7DEB7182F69830E94090D4F
:101A70004981612F80E40F90DF91CF911F910C94E9
:101A8000ED0C1F93CF93DF931F92CDB7DEB7182FC6
:101A900079830E942E0D7981672F81E0810F0F904D
:101AA000DF91CF911F910C942E0D1F93CF93DF9355
:101AB0001F92CDB7DEB7182F0E94090D0E94C00CEF
:101AC000812F8F710E94B40C80E00E94B40C17FF2C
:101AD00003C080E00E94B40C8EB589830E94B90CCB
:101AE00089810F90DF91CF911F910895CF93DF935C
:101AF000EC0140E86FE180E80E94ED0C40E86FE106
:101B000080EA0E94ED0C4AE06CE180EA0E94ED0C54
:101B100060E07CE082E00E94410DBE01745F86E0DF
:101B20000E94410D40E060E08AE70E94ED0C0E94B7
:101B3000C00C209751F40E94B90C48E06FE180E896
:101B40000E94ED0CC0E0D0E01CC08AE70E94B40CFB
:101B500080914C048EBDEDE4F4E0C45BDB4FEC17E8
:101B6000FD0731F081910DB407FEFDCF8EBDF7CF9B
:101B70000DB407FEFDCFDFCF2196C83E83E0D80726
:101B800029F08CE10E94550D8A70B1F38CE10E941E
:101B9000550D81FD03C0C83ED34039F448E06FE1E4
:101BA00080EADF91CF910C94ED0CDF91CF910895F5
:101BB000EF92FF920F931F93CF93DF938C0186E1F7
:101BC00091E0ECE4F4E0DF019C011D9221503040F3
:101BD000E1F780914704833019F0C6E3D1E002C0F9
:101BE000C3E4D4E0CE010E94AD0ABE01882319F0FF
:101BF00087E394E002C081E394E00E949B0C88811B
:101C0000807F803E91F088819981AA81BB818F3F3E
:101C10009F4FAF4FBF4F49F044E050E0BE018DE20F
:101C200094E00E94121A892B31F466E371E08CE48F
:101C300094E00E94540C88E0809358041092590458
:101C400049E050E063E971E08AE594E00E944017C2
:101C500010925C0481E1809363041092700483E429
:101C60008093710410926E0484E480936F04109248
:101C70007204109274041092750466E371E08CE4AF
:101C800094E00E94540C81E0809376048093770462
:101C900086E0809378048091480490914904A09153
:101CA0004A04B0914B0480937A0490937B04A093F0
:101CB0007C04B0937D04F090470483E0F81206C0E2
:101CC00068E175E082E894E00E947E0C6DE374E0C8
:101CD00082E994E00E94540C82E695E09093950589
:101CE00080939405CCE9D1E0EC2EA4E0EA0EFE014D
:101CF00084910E94F3082196EC12F9CF85E30E94AB
:101D0000F30881E00E94F308FF2011F083E001C096
:101D100081E00E94F3088DE30E94F30887E00E94AF
:101D2000F30881E00E94F308CDE3D4E0FC2E26E026
:101D3000F20EFC1621F089910E94F308FACF8091EF
:101D40000301882371F0E3E0F1E001900020E9F75E
:101D50003197BF016350714043E051E08CE00E9435
:101D600000090115110559F0A80164E082E30E9401
:101D7000000943E454E064E086E30E94000987E33D
:101D80000E94F30883E00E94F30881E00E94F308B8
:101D900083E00E94F30886E00E94F3088FEF0E9420
:101DA000F308C0919405D0919505C657D440CE0153
:101DB0004C9690935C0480935D040E94270CCE01A6
:101DC00008969093720480937304AE01405F5F4F56
:101DD00021E06AE188E20E94CF0BCE018A96DF9172
:101DE000CF911F910F91FF90EF900C94760D0F9370
:101DF0001F93CF938C0186E391E00E94730CECE477
:101E0000F4E088E08487C6E0C58748E050E06BE8EE
:101E100071E08AE594E00E944017ECE6F4E0DF010F
:101E20001D92CA95E9F76DE374E082E694E00E94A2
:101E3000540CB80182E794E00E947E0C68E175E0E2
:101E400088E694E00E947E0C8AE290E0CF911F9198
:101E50000F910C94760D262F206120937B04643023
:101E600021F0009711F481E090E061E00E94A20B64
:101E700010925C0488E280935D040E94890C84E0E7
:101E800080937C0410927D0422E04CE150E06AE1F2
:101E900082E30E94CF0B86E390E00C94760D1F92B4
:101EA0000F920FB60F9211242F933F938F939F930E
:101EB000EF93FF932091D6053091D7058091D805F7
:101EC0009091D9052817390731F48091C1008F7D91
:101ED0008093C10014C0E091D805F091D905EA566D
:101EE000FA4F20818091D8059091D90501968F7382
:101EF00099279093D9058093D8052093C600FF9128
:101F0000EF919F918F913F912F910F900FBE0F9066
:101F10001F9018951F920F920FB60F9211242F93B6
:101F20004F935F938F939F93EF93FF938091C000A4
:101F300082FD1CC02091C60080915C0590915D05DA
:101F400001968F73992740915E0550915F05841724
:101F5000950771F0E0915C05F0915D05E45EFA4F44
:101F6000208390935D0580935C0502C08091C6003C
:101F7000FF91EF919F918F915F914F912F910F90D2
:101F80000FBE0F901F901895CF93DF93CDB7DEB79C
:101F90002D970FB6F894DEBF0FBECDBF789484B5F1
:101FA000826084BD84B5816084BD85B5826085BD55
:101FB00085B5816085BD80916E00816080936E00E3
:101FC00010928100809181008260809381008091D5
:101FD0008100816080938100809180008160809386
:101FE00080008091B10084608093B1008091B00046
:101FF00081608093B00080917A00846080937A0041
:1020000080917A00826080937A0080917A0081606A
:1020100080937A0080917A00806880937A00109291
:10202000C1000FB6F894A8958091600088618093F4
:102030006000109260000FBEE0917405F09175058C
:1020400081E090E09C010090800502C0220F331FC8
:102050000A94E2F72083E0917005F09171051082F7
:10206000E0917205F09173052FEC208310928105A9
:10207000E0917605F091770540819C0100907C0508
:1020800002C0220F331F0A94E2F7242B2083E09131
:102090007605F091770540819C0100907D0502C096
:1020A000220F331F0A94E2F7242B2083E091760558
:1020B000F091770540819C0100907E0502C0220FBF
:1020C000331F0A94E2F7242B2083E0917605F091E8
:1020D0007705208100907F0502C0880F991F0A9420
:1020E000E2F78095822380838EE591E00E94D409F7
:1020F0001092080387E390E001E010E020E030E078
:102100000097D1F0FC0143E0F595E7954A95E1F79A
:10211000E655FD4F482F47706801790104C0CC0C8B
:10212000DD1CEE1CFF1C4A95D2F7B701A601A08169
:102130004A2B40830197E4CF6FE271E08DE394E096
:102140000E94540C88EC90E09093B2028093B1020C
:102150000CB406FC25C061E08AE00E94910461E0B5
:102160008AE00E94DA0361E08BE00E94910461E062
:102170008DE00E94910460E08CE00E94910461E097
:102180008BE00E94DA0360E08BE00E94DA0360E0FB
:102190008DE00E94DA0380E58CBD8DB581608DBD38
:1021A0008AE080932C0461E00E9491040E94B90CA3
:1021B0004FEF60E08FEF0E94ED0C0E940B0B8B0144
:1021C00082E0C82ED12CE12CF12C0E940B0B601B5D
:1021D000710B683E7340C8F361E0C61AD108E1088C
:1021E000F10808511C4FC114D104E104F10469F74E
:1021F0000E94C00C8DE10E94B40C80E00E94B40CDF
:102200001EB50E94B90C112399F360E070E088E0DC
:102210000E94410D60E070E08CE00E94410D6FEF84
:102220007BE08AE00E94410D60E07CE084E00E9457
:10223000410D6FEF71E186E00E94410D61EB88E393
:102240000E942E0D6FE370E388E20E94410D69EF5A
:1022500077EF80E30E94410D6DE080EC0E942E0D2F
:1022600060E081EC0E942E0D42E362EC80E80E9467
:10227000ED0C62E17CE086EC0E94410D62E184ECB1
:102280000E942E0D6CED75E08AEC0E94410D60916C
:102290003D0484EE0E942E0D60913E0485EE0E9466
:1022A0002E0D60913F0482EE0E942E0D609140043D
:1022B00083EE0E942E0D6091410480EE0E942E0D4F
:1022C0006091420481EE0E942E0D60E184ED0E9437
:1022D0002E0D60E071E086ED0E94410D8AEE0E94B5
:1022E000550D80FDFBCF8FE10E94090D40EC6BE1A5
:1022F00080E80E94ED0C44E06FE180E80E94ED0C64
:1023000082E70E94550D109208036BE271E088E1AC
:1023100095E00E947E0C109206031092050381E066
:102320008093070367E271E081E093E00E947E0CF6
:1023300063E271E08CEF92E00E947E0C24E135E0D4
:102340006DE274E0E8E1F5E044E04E0F9191D901CF
:102350008D919D018095892BDB018D93BD014E13DD
:10236000F5CF109206031092050386E691E00E94D5
:10237000610A88E195E00E94360C0E94C2098091B2
:10238000C302883098F4B5E08B9FF0011124EC5320
:10239000FD4F27E432E03183208328E833E13383A3
:1023A000228391E094838F5F8093C302DD24D394D2
:1023B000B3E0CB2E4090F0025090F102E090EE029C
:1023C000F090EF02FA86E9865C864B862090F20256
:1023D0003090F3028091B502882389F06091B302B6
:1023E0007091B4026115710519F46FEF7BE002C0C2
:1023F000615071098CE00E94410D1092B50289E391
:102400000E94550D8823C9F16091B3027091B40206
:1024100080E00E94410DBE016F5F7F4F86E090E03B
:102420000E94C60C89819A819093B4028093B30272
:10243000EB80FC808091B1029091B2022D8127FF48
:102440000EC0019724E0E21AF1088E159F0508F4EA
:102450007C016CE474E0C7010E94C60C02C0E12C50
:10246000F12CF701E45BFB4F1082D092B50240E4FF
:102470006EE180E80E94ED0C02C0E12CF12C80910D
:102480000803882309F43DC180914704823009F490
:1024900089C030F4882381F1813009F44EC031C104
:1024A000833021F0843009F47DC02BC18090BF02BD
:1024B0009090C002A090C102B090C2026FEF861649
:1024C0009606A606B60609F41CC10E94300B0091C0
:1024D000BB021091BC022091BD023091BE02DC0112
:1024E000CB01801B910BA20BB30B88159905AA0594
:1024F000BB0508F018C205C10E94300B6093480468
:102500007093490480934A0490934B0410921805E9
:102510001092190510921A0510921B0580E090E0A8
:102520000E94D80D88E30E94550D682F616088E3F2
:102530000E942E0DD09247042AC062E0C7010E947B
:10254000CB0A8823A9F166E874E0CE0101960E94C7
:102550007E0CE6E6F5E0C701845B9B4FBF016E5F32
:102560007F4F21813081363329F483E494E00E9447
:102570007E0C06C0FB01E20FF11DE817F90770F3AE
:10258000CE0101960E94D80D82E0809347040E94FC
:10259000300B6093B7027093B8028093B9029093A6
:1025A000BA02AFC065E0C7010E94CB0A811119C011
:1025B0000E94300B0091B7021091B8022091B9022D
:1025C0003091BA02DC01CB01801B910BA20BB30B43
:1025D00081319742A105B10508F493C010924704D8
:1025E00090C08091B602811108C088E30E94550D09
:1025F000682F6E7F88E30E942E0D66E874E088E104
:1026000095E00E947E0CA6E6B5E08701045B1B4FB7
:102610005D0182E0A80EB11C11967C9011978C91FF
:102620008630A9F048F4813071F0833009F044C05D
:10263000B50181E093E00EC08A3379F08F3FD1F18C
:102640008333D1F50AC0B50184E195E003C0B5013B
:102650008CEF92E00E947E0C2FC0F501CD01069612
:1026600020E030E0A9016191542F432F322F22271F
:10267000260F311D411D511DE817F907A1F72093C1
:10268000BF023093C0024093C1025093C2022F3F59
:102690009FEF39074907590779F0A8EEB3E00E9488
:1026A000D6196093BF027093C0028093C1029093C9
:1026B000C20202C081E001C080E0D501A70DB11DBA
:1026C000811104C0A017B10708F4A2CF0E94300BFB
:1026D0006093BB027093BC028093BD029093BE02D4
:1026E00080910103882359F010920603109205038C
:1026F000D092070361E073E0CB010E947E0CC09290
:102700004704E114F10409F0BDC08091070385700E
:10271000E1F08091050390910603892BB1F461E10A
:1027200084ED0E942E0D61E082ED0E942E0D8AEE56
:102730000E94550D80FDFBCF60E082ED0E942E0DC2
:1027400089ED0E94550D82FDF6C0809105039091A0
:10275000060301969093060380930503809100037E
:10276000813009F06FC08091070381FF6BC082E068
:1027700080930003809101018F5F80930101182FE6
:102780001F7186EF92E00E94AD0A66EF72E0882327
:1027900019F087E394E002C081E394E00E949B0C6F
:1027A00008E0009358041092590449E050E063E9AE
:1027B00071E08AE594E00E9440178CE280935D040A
:1027C00086E0809363040E94270C1092700410929C
:1027D00071048BE080936E0410936F04E2E7F4E0E1
:1027E000DF011D920A95E9F780910001809374043E
:1027F0008D5F8093000180E680937A0482E080936D
:102800007B04C0927C0410927D0410927E0410928E
:102810007F04109280041092810480938204B4E0BB
:10282000B09383048093840486E28093850422E03D
:1028300040E250E06AE182E30E94CF0B8AE390E03D
:102840000E94760D8CEF92E00E94AD0A882349F039
:102850008091FB02811105C08091FA02882309F45E
:1028600074C086EF92E00E94AD0A882309F458C034
:102870008091F502811154C08091F402882309F4FB
:102880006BC04EC0E9E2EE16F10408F449C0809135
:102890005804883009F044C080915904863009F00A
:1028A00097C044E050E068E175E082E794E00E9460
:1028B000121A892BA9F580916104813029F582E5EE
:1028C00094E00E94730C1092600482E08093610493
:1028D00062E674E08CE694E00E94540C6DE374E0D0
:1028E00082E694E00E94540C68E674E082E794E08B
:1028F0000E947E0C68E175E088E694E00E947E0C00
:102900008AE290E00E94760D8091070383FD2BC040
:102910008091FB028823A1F18091F5028823E9F1DF
:102920000E94BE0957CD88E195E00E94D80D24E0B1
:10293000209347042CCE81E093E00E94F70E809113
:10294000070388608093070300CF8CEF92E00E941A
:10295000F70ED092FA0285CF86EF92E00E94F70E32
:10296000D092F402DDCF10916104123089F661E358
:1029700074E081E093E00E945C0C811121C0C8CF1B
:102980008091FA02882341F267E374E08CEF92E0D1
:102990000E945C0C811117C0BFCF8091F402882384
:1029A00009F4BECF67E374E086EF92E00E945C0C0E
:1029B000882309F4B5CFD092F5021092F402B0CF7B
:1029C00010930703A5CFD092FB021092FA02A4CF76
:1029D00069E2E616F10409F4A3CF8111A1CF809139
:1029E0005A04853409F09CCF44E050E068E175E07A
:1029F0008AE694E00E94121A892BA9F044E050E084
:102A00006DE274E08AE694E00E94121A892B59F074
:102A100044E050E066E371E08AE694E00E94121A16
:102A2000892B09F07DCF809163048130E9F4909186
:102A30006E049830C9F42114310421F086E694E044
:102A4000F10109950E94890C10926E048091700426
:102A5000883F28F0909171049F5F90937104885F84
:102A600080937004C701C5C09091C302911106C044
:102A7000F6E3EF16F10408F051C052CF8131C1F7EF
:102A800074ECA72E72E0B72E612C712C40E080917F
:102A9000C30290E068167906ECF5D50112965C91B8
:102AA000129713969C9113972091700430E09F83A6
:102AB0001886EF81F8852E173F0729F5809171045C
:102AC000851321C014962C9114972223E1F00091D4
:102AD000730410E0085011092091720430E0322F85
:102AE0002227020F131F40916E0450E0542F4427F9
:102AF00020916F04422BED91FC9126E734E066E6CD
:102B000074E0099541E0FFEF6F1A7F0A25E0A20EFD
:102B1000B11CBDCF442309F4ABCF02CF8091630435
:102B2000863009F0FDCE809170048B3009F0B9C079
:102B300044E050E066EF72E086E694E00E94121AEC
:102B4000892B09F0EDCE20917B0422FF13C0EB848A
:102B5000FC84E114F10461F08091710420E030E024
:102B600040E050E063E0829586958770F701099513
:102B700085E081C02D870E94860B8C018091000327
:102B80002D85823009F043C0822F8071227122315D
:102B900099F560E080E090E00E942B0F88E180933F
:102BA0007B04E984FA84E114F10449F080916F0414
:102BB000829586958770F70109958C0102C000E027
:102BC00010E0C0920003C801889690935C04809343
:102BD0005D040E94270C10927E0410927F04A801CD
:102BE000445E5F4F22E06AE182E30E94CF0BC8019E
:102BF000C6960E94760D94CED0920003811103C038
:102C0000C801019602C080E090E064E09EC083307D
:102C1000A9F501151105A9F14114510491F1809113
:102C20007A0490E024E0959587952A95E1F7880F3E
:102C3000991F880F991F8296A70148505109841740
:102C4000950708F4AC01C801840F951FE816F90632
:102C500020F49701241B350B01C098018091710469
:102C600060E0829586958770F201099569E0C80158
:102C70000E942B0F86E08093000352CE853009F42A
:102C80004FCE20FF07C0833009F44ACE69E0C80167
:102C90000196EECF0115110509F442CE60E0C8019E
:102CA00054C081113DCE80917104803509F038CE39
:102CB00010917B0411FF39C010925C048CE2809368
:102CC0005D040E94890C82E180937B0460E081E0D6
:102CD00090E00E94A20B10927204109273048091F3
:102CE000000180937404109275048D5F809300013D
:102CF00082E080938204F4E0F093830485E0809383
:102D000084041092850490E690937A0480937C0466
:102D100088E780937D0422E040E250E06AE182E3AC
:102D20000E94CF0B8AE390E064CF14FFF9CD0E949C
:102D3000860B9093ED028093EC02892B09F0F0CD85
:102D400010FFEECD60E080E090E00E942B0FE8CD18
:102D5000E0E6F5E01382128288EE93E0A0E0B0E0B6
:102D600084839583A683B78380E491E091838083F5
:102D70008CE195E09587848786E995E0978786873B
:102D800085EC90E0918B808B84EC90E0938B828B30
:102D900080EC90E0958B848B81EC90E0978B868B18
:102DA00082EC90E0918F808F86EC90E0938F828F01
:102DB00084E0848F83E0858F87E0868F85E0878F2E
:102DC00081E080A3EAEDF5E086E591E091838083E0
:102DD0001282138214821582E0EEF5E091838083E3
:102DE0001282138214821582E2E8F5E080E591E018
:102DF0009183808383EA92E0958384830895EF92A0
:102E00000F931F93CF93DF93E80147FD02C034E097
:102E100001C034E1E42F440FFF0BF7FF03C0F1952D
:102E2000E195F109E32E022F2E2FAE010E945117DA
:102E3000CE01DF91CF911F910F91EF900895FC018A
:102E400088279927E89421912032E9F3293010F05E
:102E50002E30C8F32B3241F02D3239F4689404C07F
:102E60000E944917820F911D219120532A30C0F3EF
:102E70001EF4909581959F4F0895F8940C94F51B3E
:102E8000FB01DC0102C005900D9241505040D8F783
:102E900008957AE0979F902D879F802D910D1124A2
:102EA00008954F925F926F927F929F92AF92BF92DE
:102EB000CF92DF92EF92FF920F931F93CF93DF9306
:102EC000CDB7DEB729970FB6F894DEBF0FBECDBFE2
:102ED0006A01122FB02E2BE3201720F0FF24F39469
:102EE000F00E02C0BCE3FB2E0F2D27E0AE014F5FBA
:102EF0005F4F0E94DF18AC018981982F9970913043
:102F000031F0E1FC06C0E0FE06C090E205C09DE2A3
:102F100003C09BE201C090E0EE2DE07183FF3CC056
:102F2000911102C083E001C084E0811718F4212FC1
:102F3000281B01C020E0E1110BC0F601822F30E216
:102F4000882319F031938150FBCFC20ED11C20E0B1
:102F5000992329F0D6019C93F60131966F01C601A1
:102F60000396E2FE0AC03EE4D6013C9341E411968A
:102F70004C93119712963C9306C03EE6F6013083BF
:102F800041E641833283FC01322F40E2332309F4CE
:102F900042C041933150FACF82FF44C0911102C028
:102FA00083E001C084E0811718F4212F281B01C0A1
:102FB00020E0E1110BC0F601822F30E2882319F0E6
:102FC00031938150FBCFC20ED11C20E0992329F010
:102FD000D6019C93F60131966F01C6010396E2FE7D
:102FE0000BC039E4D6013C933EE411963C93119713
:102FF00036E412963C9307C039E6F60130833EE68C
:10300000318336E63283FC01322F40E2332319F05C
:1030100041933150FBCFFC01E20FF11D10828EEF86
:103020009FEFB7C0F1E0911101C0F0E06F2F70E0A9
:103030001416150624F49A012F5F3F4F02C021E0B9
:1030400030E0260F371FBB2029F06B2D70E06F5F3B
:103050007F4F02C060E070E0260F371F612F70E0E5
:10306000261737071CF4121B212F01C020E03E2D2C
:10307000387159F4D601322F60E2332319F06D9381
:103080003150FBCFC20ED11C20E0FF2331F0D6011E
:103090009C93B6016F5F7F4F6B01E1110BC0F6018E
:1030A000922F30E3992319F031939150FBCFC20E48
:1030B000D11C20E09F2D940F3A81782F7071A72E9C
:1030C00084FF03C0313309F49150191624F4993068
:1030D00018F098E001C091E0E42F852F57FF02C05F
:1030E000E0E080E06E2F782FE0E0F0E0AEE29A2E94
:1030F0003A01691A71082A01461A570A0B2D10E085
:103100001195019511096F3F8FEF780729F4D601CA
:103110009C92C60101966C014617570784F066160B
:1031200077066CF47F01E40CF51CA1E0B0E0AC0F75
:10313000BD1FEA0EFB1ED7011196BC9002C090E3A2
:10314000B92E615071093196C60101967C01601754
:10315000710724F0D601BC926C01D5CF64177507B6
:1031600041F4363320F4353321F4A11002C081E359
:10317000B82EF601B082F701822F90E2882319F071
:1031800091938150FBCFF701E20FF11D108280E097
:1031900090E029960FB6F894DEBF0FBECDBFDF9149
:1031A000CF911F910F91FF90EF90DF90CF90BF9044
:1031B000AF909F907F906F905F904F9008952830D0
:1031C00008F027E03327DA01990F311D87FD916060
:1031D00000966105710539F432602E5F3D9330E34E
:1031E0002A95E1F708959F3F30F080387105610519
:1031F00009F03C5F3C5F3D93913008F08068911D81
:10320000DF93CF931F930F93FF92EF92192F987F25
:103210009695E92F96959695E90FFF27EE53FF4F68
:1032200099273327EE24FF24A701E701059008948E
:10323000079428F4360FE71EF81E491F511D660F2C
:10324000771F881F991F0694A1F70590079428F40B
:10325000E70EF81E491F561FC11D770F881F991FC3
:10326000661F0694A1F70590079428F4F80E491FED
:10327000561FC71FD11D880F991F661F771F069401
:10328000A1F70590079420F4490F561FC71FD81FB8
:10329000990F661F771F881F0694A9F784911095D0
:1032A000177041F0D695C79557954795F794E794D1
:1032B0001A95C1F7E8E6F0E06894159015913591FC
:1032C0006591959105907FE27395E118F10A430BA2
:1032D000560BC90BD009C0F7E10CF11E431F561F56
:1032E000C91FD01D7EF4703311F48A95E6CFE8949F
:1032F000015030F0080F0AF40027021708F4202FBD
:103300002395022F7A3328F079E37D932A95E9F704
:1033100010C07D932A9589F6069497956795379501
:1033200017951794E118F10A430B560BC90BD009F6
:1033300098F023957E9173957A3308F070E37C932F
:103340002013B8F77E9170617D9330F0839571E31F
:103350007D9370E32A95E1F71124EF90FF900F9190
:103360001F91CF91DF91992787FD90950895052EA4
:1033700097FB1EF400940E94CE1957FD07D00E94BF
:10338000E11907FC03D04EF40C94CE1950954095EA
:10339000309521953F4F4F4F5F4F08959095809501
:1033A000709561957F4F8F4F9F4F08950E94031A2C
:1033B000A59F900DB49F900DA49F800D911D112489
:1033C0000895A1E21A2EAA1BBB1BFD010DC0AA1F66
:1033D000BB1FEE1FFF1FA217B307E407F50720F07E
:1033E000A21BB30BE40BF50B661F771F881F991FF9
:1033F0001A9469F760957095809590959B01AC0142
:10340000BD01CF010895A29FB001B39FC001A39F4A
:10341000700D811D1124911DB29F700D811D11240D
:10342000911D0895FB01DC0104C08D91019080196C
:1034300021F441505040C8F7881B990B0895FB01B7
:10344000DC0102C001900D9241505040D8F7089520
:10345000FC018191861721F08823D9F799270895D7
:103460003197CF010895FB01DC018D910190801906
:103470000110D9F3990B0895FB01DC0101900D9225
:103480000020E1F70895FB01DC014150504048F075
:1034900001900D920020C9F701C01D92415050408B
:1034A000E0F708955058BB27AA270E946A1A0C9487
:1034B000851B0E94771B38F00E947E1B20F039F498
:1034C0009F3F19F426F40C94741B0EF4E095E7FB6F
:1034D0000C946E1BE92F0E94961B58F3BA176207D3
:1034E00073078407950720F079F4A6F50C94B81BB0
:1034F0000EF4E0950B2EBA2FA02D0B01B90190010F
:103500000C01CA01A0011124FF27591B99F0593F52
:1035100050F4503E68F11A16F040A22F232F342F9A
:103520004427585FF3CF469537952795A795F040E8
:103530005395C9F77EF41F16BA0B620B730B840BFD
:10354000BAF09150A1F0FF0FBB1F661F771F881FB5
:10355000C2F70EC0BA0F621F731F841F48F487950D
:1035600077956795B795F7959E3F08F0B0CF9395FF
:10357000880F08F09927EE0F9795879508950E9478
:10358000D31A0C94851B0E947E1B58F00E94771B57
:1035900040F029F45F3F29F00C946E1B51110C94FC
:1035A000B91B0C94741B0E94961B68F39923B1F30A
:1035B000552391F3951B550BBB27AA276217730759
:1035C000840738F09F5F5F4F220F331F441FAA1FED
:1035D000A9F335D00E2E3AF0E0E832D091505040A9
:1035E000E695001CCAF72BD0FE2F29D0660F771F57
:1035F000881FBB1F261737074807AB07B0E809F03D
:10360000BB0B802DBF01FF2793585F4F3AF09E3FC1
:10361000510578F00C946E1B0C94B91B5F3FE4F3DA
:10362000983ED4F3869577956795B795F7959F5F04
:10363000C9F7880F911D9695879597F90895E1E050
:10364000660F771F881FBB1F621773078407BA07AF
:1036500020F0621B730B840BBA0BEE1F88F7E0950A
:103660000895E89409C097FB3EF490958095709575
:1036700061957F4F8F4F9F4F9923A9F0F92F96E9BE
:10368000BB279395F695879577956795B795F11133
:10369000F8CFFAF4BB0F11F460FF1BC06F5F7F4FD0
:1036A0008F4F9F4F16C0882311F096E911C07723E2
:1036B00021F09EE8872F762F05C0662371F096E8EB
:1036C000862F70E060E02AF09A95660F771F881FBA
:1036D000DAF7880F9695879597F9089597F99F6778
:1036E00080E870E060E008959FEF80EC089500248A
:1036F0000A941616170618060906089500240A9457
:1037000012161306140605060895092E0394000CDC
:1037100011F4882352F0BB0F40F4BF2B11F460FF6B
:1037200004C06F5F7F4F8F4F9F4F089557FD905894
:10373000440F551F59F05F3F71F04795880F97FB75
:10374000991F61F09F3F79F087950895121613062F
:103750001406551FF2CF4695F1DF08C0161617065E
:103760001806991FF1CF8695710561050894089593
:10377000E894BB2766277727CB0197F908950E9425
:10378000C41B08F48FEF0895990F0008550FAA0B7A
:10379000E0E8FEEF16161706E807F907C0F0121664
:1037A0001306E407F50798F0621B730B840B950B67
:1037B00039F40A2661F0232B242B252B21F40895BC
:1037C0000A2609F4A140A6958FEF811D811D089559
:1037D0000E94031AB7FF0895821B930B0895EE0F02
:0E37E000FF1F0590F491E02D0994F894FFCF9F
:1037EE000A01FF41726475696E6F2D454E43323882
:1037FE006A36302D3030000000000000000000005E
:10380E00000000FFFFFF00C0A80101C0A8015FFF7C
:10381E00FFFFFFFF0200FFFFFFFFFFFF00000000A2
:10382E0025091501AE097209920967090000000009
:10383E00CD040000000001020000000014015B53E3
:10384E00544152545D0041726475696E6F20495047
:10385E003A200041726475696E6F20506F72743A2F
:10386E002000526173706265727279205069205027
:10387E006F72743A200052617370626572727920B1
:10388E0050692049503A20005061796C6F61643A5A
:10389E0020003C2D20444154412052454345495679
:1038AE0045440044656C696D69746572205175619B
:1038BE006E746974793A2000436F6D6D616E642089
:1038CE0023003C2D20444154412050415253454445
:1038DE00005265706C793A20005265706C79204CFC
:1038EE00656E6774683A2000436F6D6D616E64207B
:1038FE00436F6D706C657465642E2E2E002D2D2D0C
:10390E002D2D2D2D2D2D2D2D2D2D2D2D2D2D2D2DD9
:10391E002D2D2D2D2D2D2D2D2D2D2D2D2D2D2D2DC9
:10392E002D2D2D2D2D2D2D2D2D2D2D2D2D2D2D2DB9
:10393E002D2D005B50524F434553535D0050696E21
:10394E003A20004C6576656C3A2000777269746592
:10395E00005B57726974655D0073746174757300F2
:10396E007265616400616E616C6F670070776D00E7
:10397E006672657100746F6E650052657475726E55
:0A398E003A200062617369630000D3
:00000001FF
